:100000000C9462000C948A000C948A000C948A0070
:100010000C948A000C948A000C948A000C948A0038
:100020000C948A000C948A000C948A000C948A0028
:100030000C948A000C948A000C948A000C948A0018
:100040000C94B6050C948A000C9484050C945E05FF
:100050000C948A000C948A000C948A000C948A00F8
:100060000C9400060C948A00000000002300260077
:10007000290000000008000201000003040700003E
:1000800000000000000000000000250028002B00F8
:1000900000000000240027002A00040404040404D3
:1000A0000404020202020202030303030303010227
:1000B00004081020408001020408102001020408F6
:1000C00010201F0711241FBECFEFD8E0DEBFCDBF29
:1000D00013E0A0E0B1E0E4E7F2E102C005900D9288
:1000E000A238B107D9F724E0A2E8B3E001C01D921D
:1000F000A83EB207E1F710E0C2E6D0E004C02197C5
:10010000FE010E943209C136D107C9F70E94580783
:100110000C9438090C94000090E0FC01E255FF4F6C
:10012000249186569F4FFC018491882399F090E09A
:10013000880F991FFC01E057FF4FA591B491FC0176
:10014000EA57FF4F859194918FB7F894EC91E22B89
:10015000EC938FBF0895982F20913E0481E02132C7
:1001600008F043C080911A048111FCCF80913D04B6
:1001700032E030931A04909319049FEF909318047F
:100180001092170420931604ADE1B4E0E6EFF3E01B
:1001900090E0291331C01092F5039091F503880F78
:1001A000892B8093F5038091F403813049F51092F7
:1001B000F4038091F5038093BB008091BC0083FD24
:1001C000F8CF85EC8093BC0080911A048230E1F373
:1001D000809118048F3FB1F0809118048032A1F013
:1001E00080911804803391F084E010921C041092E6
:1001F0003E0410921B0408953D9131939F5FC9CF37
:1002000085EEE0CF80E0F1CF82E0EFCF83E0EDCF6D
:100210008091F3039091F203891B990B089508953F
:100220000895AF92BF92CF92DF92EF92FF920F9319
:100230001F93CF93DF936C017B018B01040F151F7C
:10024000EB015E01AE18BF08C017D10759F06991E4
:10025000D601ED91FC910190F081E02DC601099548
:10026000892B79F7C501DF91CF911F910F91FF90F5
:10027000EF90DF90CF90BF90AF900895FC01538D29
:10028000448D252F30E0842F90E0821B930B541770
:1002900010F0CF96089501970895FC01918D828DFD
:1002A000981761F0A28DAE0FBF2FB11D5D968C9196
:1002B000928D9F5F9F73928F90E008958FEF9FEFD5
:1002C0000895FC01918D828D981731F0828DE80F91
:1002D000F11D858D90E008958FEF9FEF0895FC014B
:1002E000918D228D892F90E0805C9F4F821B910918
:1002F0008F73992708958FE394E00E946F0121E0A6
:10030000892B09F420E0822F089580E090E0892B6A
:1003100029F00E947B0181110C9400000895FC01DA
:10032000A48DA80FB92FB11DA35ABF4F2C91848D56
:1003300090E001968F739927848FA689B7892C93B3
:10034000A089B1898C91837080648C93938D848D06
:10035000981306C00288F389E02D80818F7D808309
:100360000895EF92FF920F931F93CF93DF93EC01C9
:1003700081E0888F9B8D8C8D98131AC0E889F9894C
:10038000808185FF15C09FB7F894EE89FF8960834F
:10039000E889F98980818370806480839FBF81E0D0
:1003A00090E0DF91CF911F910F91FF90EF90089512
:1003B000F62E0B8D10E00F5F1F4F0F731127E02EED
:1003C0008C8D8E110CC00FB607FCFACFE889F98925
:1003D000808185FFF5CFCE010E948F01F1CFEB8D9B
:1003E000EC0FFD2FF11DE35AFF4FF0829FB7F894F9
:1003F0000B8FEA89FB8980818062CFCFCF93DF9317
:10040000EC01888D8823B9F0AA89BB89E889F9892C
:100410008C9185FD03C0808186FD0DC00FB607FC61
:10042000F7CF8C9185FFF2CF808185FFEDCFCE0194
:100430000E948F01E9CFDF91CF910895833081F041
:1004400028F4813099F08230A9F008958730A9F01E
:100450008830C9F08430B1F4809180008F7D03C072
:10046000809180008F7780938000089584B58F7786
:1004700084BD089584B58F7DFBCF8091B0008F77C8
:100480008093B00008958091B0008F7DF9CF1F93C5
:10049000CF93DF93282F30E0F901EE58FF4F84917E
:1004A000F901E255FF4FD491F901E656FF4FC4918F
:1004B000CC23A9F0162F81110E941E02EC2FF0E030
:1004C000EE0FFF1FEA57FF4FA591B4918FB7F89435
:1004D000EC91111108C0D095DE23DC938FBFDF9122
:1004E000CF911F910895DE2BF8CF3FB7F8948091FC
:1004F000CA039091CB03A091CC03B091CD0326B554
:10050000A89B05C02F3F19F00196A11DB11D3FBF4B
:10051000BA2FA92F982F8827BC01CD01620F711D1A
:10052000811D911D42E0660F771F881F991F4A9514
:10053000D1F708958F929F92AF92BF92CF92DF92A0
:10054000EF92FF924B015C010E9475026B017C01EE
:100550000E9475026C197D098E099F09683E7340DF
:1005600081059105A8F321E0821A9108A108B1083C
:1005700088EEC80E83E0D81EE11CF11C81149104A2
:10058000A104B10429F7FF90EF90DF90CF90BF90C6
:10059000AF909F908F90089585ED8093BC008091DF
:1005A000BC0084FDFCCF10921A0408952091A20390
:1005B000260F3327331F21323105ECF420911A0422
:1005C000FC0190E080E0243069F082E00895A09181
:1005D000A2032191AC014E575C4FA40FB52FB11D62
:1005E0002C930196861798F38091A203680F60936D
:1005F000A20380E0089581E008950895E091F20358
:100600008091F303E81730F4F0E0EE52FC4F808164
:1006100090E008958FEF9FEF08959091F2038091FD
:10062000F3032FEF3FEF981748F4E92FF0E0EE5275
:10063000FC4F208130E09F5F9093F203C901089541
:10064000CF92DF92EF92FF920F931F93CF93DF939E
:100650007C01CB018A0120911B04222389F0EB014C
:100660006B01C40ED51ECC15DD0569F06991D7016B
:10067000ED91FC910190F081E02DC7010995F3CF38
:10068000642F0E94D602C801DF91CF911F910F9174
:10069000FF90EF90DF90CF900895CF93DF931F925C
:1006A000CDB7DEB7698320911B042223F9F0209196
:1006B0003E04203258F021E030E0FC0133832283F5
:1006C00090E080E00F90DF91CF91089580911C041D
:1006D000E82FF0E0E35EFB4F998190838F5F80937A
:1006E0001C0480933E0481E090E0ECCF61E0CE01F9
:1006F00001960E94D602F7CF90E080E008952F92F5
:100700003F924F925F926F927F928F929F92AF92A1
:10071000BF92CF92DF92EF92FF920F931F93CF93EE
:10072000DF934B015C0134E1432E512C0BEE14E0BE
:10073000C3ECDCE04BEF242E4CE7342E90E2692E24
:10074000712CC12CD12CE12C20E8F22ED501C40152
:100750008C219D21AE21BF2161E0892B8A2B8B2B1F
:1007600009F45AC081E10E944702CE010197F1F7D6
:1007700060E081E10E944702C8010197F1F7F69419
:10078000E794D794C79481E0681A7108F9F661E09C
:1007900081E10E944702C8010197F1F760E081E121
:1007A0000E944702CE010197F1F761E081E10E94CA
:1007B0004702C8010197F1F760E081E10E9447021A
:1007C000CE010197F1F761E081E10E944702C80183
:1007D0000197F1F760E081E10E944702CE010197A5
:1007E000F1F7C1010197F1F781E0481A510809F0CA
:1007F000A5CFDF91CF911F910F91FF90EF90DF90E8
:10080000CF90BF90AF909F908F907F906F905F90B0
:100810004F903F902F90089581E10E944702C801B8
:100820000197F1F760E081E10E944702CE01A5CF78
:10083000282F30E0982F991F9927991FA9015695C5
:10084000542F442757954795942BA90165E055955A
:1008500047956A95E1F74270942BA90173E055958D
:1008600047957A95E1F74470942BA90155954795E2
:100870004870942BA901440F551F4071942BA90176
:10088000A3E0440F551FAA95E1F74072942BB5E001
:10089000220F331FBA95E1F72074892F822B089518
:1008A0001F93CF93DF93162FD72F0E941804C82FC2
:1008B0008D2F0E941804D82F812F0E941804CD0F6D
:1008C0008C0FDF91CF911F910C941804FC010190C3
:1008D0000020E9F73197AF01481B590BBC018FE3AA
:1008E00094E00C9411018F929F92AF92BF920F935C
:1008F0001F93CF93DF93CDB7DEB7A1970FB6F894D0
:10090000DEBF0FBECDBF19A2423008F44AE08E010F
:100910000F5D1F4F842E912CB12CA12CA5019401A9
:100920000E941009E62FB901CA01EA30F4F4E05D33
:10093000D801EE938D01232B242B252B79F790E002
:1009400080E0109719F0CD010E946604A1960FB6C1
:10095000F894DEBF0FBECDBFDF91CF911F910F91F5
:10096000BF90AF909F908F900895E95CE1CFCF93B7
:10097000DF930E946604EC018AED92E00E94660417
:100980008C0F9D1FDF91CF910895CF93C62F91E0DB
:1009900090931B0493E790933D0410921C041092D3
:1009A0003E04682F8CED94E00E944D036C2F8CED7B
:1009B00094E00E944D0381E00E94AB00C82F882381
:1009C00021F08DED92E00E9466048C2FCF91089566
:1009D0000F931F93CF93DF938B0191E090931B04B0
:1009E00093E790933D0410921C0410923E04682FEC
:1009F0008CED94E00E944D0381E00E94AB00D82F63
:100A0000882351F08DED92E00E9466048D2FDF91D6
:100A1000CF911F910F91089580911A048111FCCFFD
:100A200081E080931A04809319049FEF9093180437
:100A300010921704109216048093F5038091F50329
:100A4000866E8093F5038091F403813079F51092DE
:100A5000F4038091F5038093BB008091BC0083FD7B
:100A6000F8CF85EC8093BC0080911A048130E1F3CB
:100A70008091170481111CC080911704A6EFB3E088
:100A8000E2EDF3E0C0E0C81315C01092F203C0938A
:100A9000F3038091F203C81709F4B8CF8CED94E00A
:100AA0000E940D03F80181938F01F3CF85EEDACF19
:100AB00081E0E4CF9D919193CF5FE5CF1F920F929C
:100AC0000FB60F9211242F933F934F935F936F9321
:100AD0007F938F939F93AF93BF93EF93FF938FE396
:100AE00094E00E948F01FF91EF91BF91AF919F9190
:100AF0008F917F916F915F914F913F912F910F90C7
:100B00000FBE0F901F9018951F920F920FB60F9265
:100B100011242F938F939F93EF93FF93E0914F04B2
:100B2000F09150048081E0915504F091560482FDCB
:100B30001BC09081809158048F5F8F73209159045E
:100B4000821741F0E0915804F0E0E15CFB4F958F93
:100B500080935804FF91EF919F918F912F910F9067
:100B60000FBE0F901F9018958081F4CF1F920F92A7
:100B70000FB60F9211242F933F938F939F93AF93B0
:100B8000BF938091C6039091C703A091C803B09111
:100B9000C9033091C50323E0230F2D3758F5019683
:100BA000A11DB11D2093C5038093C6039093C70375
:100BB000A093C803B093C9038091CA039091CB035B
:100BC000A091CC03B091CD030196A11DB11D8093DE
:100BD000CA039093CB03A093CC03B093CD03BF91F2
:100BE000AF919F918F913F912F910F900FBE0F90DA
:100BF0001F90189526E8230F0296A11DB11DD2CF94
:100C00001F920F920FB60F9211242F933F934F9381
:100C10005F936F937F938F939F93AF93BF93EF9364
:100C2000FF938091B900887F803609F44AC0F0F5BF
:100C3000883209F4A7C018F5803109F49BC0B8F4D4
:100C4000882309F4F9C0883009F494C0FF91EF912A
:100C5000BF91AF919F918F917F916F915F914F91D4
:100C60003F912F910F900FBE0F901F9018958831D4
:100C700009F488C0803251F78093180414C080347E
:100C800009F49DC040F48033B9F38833F9F68093BA
:100C9000180485ECB0C0803509F485C0883509F4A6
:100CA00096C0883499F60E94CC02D0CF883909F4D6
:100CB0008CC038F5883729F050F4883611F0803729
:100CC00029F683E080931A041092C40357C0883831
:100CD00009F47BC0803919F0803809F0B7CF8091D2
:100CE000C403803208F071C0E091C40381E08E0F2C
:100CF0008093C4038091BB00F0E0EC55FC4F8083EF
:100D00003DC0803B39F0E0F4803A09F479C0883A7C
:100D100009F09CCF84E080931A041092A3031092F0
:100D2000A203E091D003F091D10309958091A20331
:100D300081110FC081E08093A2031092820309C049
:100D4000803C09F4A6CF883C09F4A3CF883B09F086
:100D50007DCFE091A30381E08E0F8093A303F0E0A9
:100D6000EE57FC4F80818093BB009091A30380914C
:100D7000A20329C08091F5038093BB0085EC80938A
:100D8000BC0064CF9091170480911604981758F511
:100D9000E091170481E08E0F80931704F0E0EA5091
:100DA000FC4F8081E9CFE091170481E08E0F8093A2
:100DB00017048091BB00F0E0EA50FC4F80839091D3
:100DC0001704809116049817C8F285E8D8CFE091EF
:100DD000170481E08E0F809317048091BB00F0E030
:100DE000EA50FC4F80838091190481115CCF81E02F
:100DF0008093F40384EA8093BC0010921A0426CFF7
:100E000085EC8093BC0010921A048091C403803258
:100E100030F4E091C403F0E0EC55FC4F1082609197
:100E2000C40370E0E091CE03F091CF0384EA93E035
:100E300009951092C4030ACF1092180434CFEFE33F
:100E4000F4E01382128288EE93E0A0E0B0E08483A5
:100E50009583A683B7832AEB32E03183208325EC88
:100E600030E03587248724EC30E03787268720EC74
:100E700030E0318B208B21EC30E0338B228B22EC65
:100E800030E0358B248B26EC30E0378B268B118EAF
:100E9000128E138E148EECEDF4E013821282848392
:100EA0009583A683B7838CEC92E091838083089529
:100EB000CF93DF9300D0CDB7DEB7789484B582604E
:100EC00084BD84B5816084BD85B5826085BD85B5EE
:100ED000816085BD80916E00816080936E0010926C
:100EE00081008091810082608093810080918100E7
:100EF0008160809381008091800081608093800078
:100F00008091B10084608093B1008091B0008160D5
:100F10008093B00080917A00846080937A00809101
:100F20007A00826080937A0080917A008160809359
:100F30007A0080917A00806880937A001092C100D4
:100F40008DE00E948C0060E08DE00E94470204E08A
:100F500010E09FE7E92E90E0F92E2BEBC22E20E067
:100F6000D22E37EAA32E30E0B32EF7018491F6019A
:100F70009490F501849070E060E0882099F08111F0
:100F80000E941E02E82DF0E0EE0FFF1FE859FF4F10
:100F9000A591B4918C91982291E080E009F490E0C1
:100FA000692F782FF1E06F278DE00E9447020150F2
:100FB0001109D9F68FE00E948C00E0914F04F09166
:100FC000500482E08083E0914B04F0914C04108245
:100FD000E0914D04F0914E048FEC80831092570401
:100FE000E0915304F091540486E08083E091510431
:100FF000F0915204808180618083E0915104F091EE
:101000005204808188608083E0915104F091520401
:10101000808180688083E0915104F0915204808146
:101020008F7D808384EF92E00E94B7041A82198238
:101030008BEE9AE00197F1F71092F2031092F3030E
:1010400010921C0410923E0410921A0481E08093C6
:1010500019041092F40361E082E10E94470261E00A
:1010600083E10E9447028091B9008E7F8093B9008E
:101070008091B9008D7F8093B90088E48093B80097
:1010800085E48093BC008FE091E09093D10380933E
:10109000D00380E191E09093CF038093CE0385E06D
:1010A00093E00E94B70460E08FEE0E94C50460E008
:1010B0008FEE0E94C504BE016E5F7F4F80E00E94EC
:1010C000E804182F811127C0BE016F5F7F4F81E0B8
:1010D0000E94E804182F81111EC084E193E00E9451
:1010E00066046A8170E090E080E040E10E94730451
:1010F0008CE193E00E946604698170E090E080E0FA
:1011000040E10E9473048AED92E00E9466048A81A5
:10111000803289F01FEF85E693E00E946604612F1C
:1011200070E090E080E04AE00E9473048AED92E073
:101130000E94660421C08981863761F787E293E0C7
:101140000E94B70400E011E082E0063B180741F07E
:10115000F801618180810E94C5040E5F1F4FF4CFAA
:1011600060E08FEE0E94C50487E393E00E94B7041D
:101170008DE593E00E94B70400E010E01982BE0103
:101180006F5F7F4F83E40E94E80481110BC0898167
:10119000813091F0823059F164E670E080E090E0B7
:1011A0000E949A020115110549F30E947B018823D0
:1011B00029F30E940000E2CF60E273E080E090E05B
:1011C0000E949A0286E793E00E94B7046FE074E3FE
:1011D00082E190E00E94500490E0B0E0A0E0BC0109
:1011E000CD017F60846392610E947F03D5CF60E26E
:1011F00073E080E090E00E949A028CE793E00E9406
:10120000B7046EE074E382E190E00E94500490E045
:10121000B0E0A0E0BC01CD017E6084639261E4CFC8
:10122000A1E21A2EAA1BBB1BFD010DC0AA1FBB1FEA
:10123000EE1FFF1FA217B307E407F50720F0A21B5C
:10124000B30BE40BF50B661F771F881F991F1A94C9
:1012500069F760957095809590959B01AC01BD01F3
:10126000CF010895EE0FFF1F0590F491E02D099432
:04127000F894FFCF20
:10127400EF003229330134003501360037073817BF
:1012840039063A123F00400241FF4201462D470F02
:10129400483C49004A1E4B004C204D004E1A4F1446
:1012A4005000511052005C025D005E105F3F6027E9
:1012B40061286200630364F7650366D96703680104
:1012C40069C86A406D046E006F007080710072001E
:1012D400730074F07500804281448204832084206A
:1012E400850086108700880589188A108B018C3741
:1012F4008D008EF08F8190069106921E930D940AB4
:10130400950A960C9705980A99419A149B0A9C3F52
:101314009D339EAE9FF9A048A113A210A308A43048
:10132400A519A610A708A824A904AA1EAB1ECC19A7
:10133400CD0BCE13CF64D021D10FD288E001E104CC
:10134400E241E3D6E400E50CE60AE700E800E90040
:10135400EE07EF01001E011E020F03100402050038
:1013640006B00704080D090E0A9C0B040C050D0FAA
:101374000E020F12100211021200130114051507B8
:1013840016051707180119041A051B0C1C2A1D0140
:101394001E00210022002300250126002739287F72
:1013A400290830033100321A331A3407350736015D
:1013B40037FF383639073A003EFF3F004077414057
:1013C4004200433044A0455C4600470048584A1E4A
:1013D4004B1E4C004D004EA04F8050005100520057
:1013E40053005400578059105A085B945CE85D0818
:1013F4005E3D5F9960456140632D640265966600B9
:101404006797680169CD6A016BB06C046D2C6E013D
:101414006F32710072017335740075337631770160
:101424007C847D037E0100000000B10111013E01B6
:10143400FE016F014D016101000000004D03200316
:101444007C03FD0208010D03FE020D0A00547261C3
:101454006E736D697373696F6E206572726F72213A
:1014640021210A005374617274696E672050726F8F
:101474006772616D00494E49542053454E534F5293
:101484002E2E2E004164647230203D002C20204119
:1014940064647231203D0077616B652D7570206640
:1014A400696E6973682E0050616A3736323020697C
:1014B4006E697469616C697A6520726567697374B1
:1014C40065722066696E69736865642E00494E49C9
:1014D40054204F4B00494E4954204552524F522CF0
:1014E400434F44453A005269676874004C6566741A
:0214F4000000F6
:00000001FF
