:100000000C94C1150C94E9150C94E9150C94E915A0
:100010000C94E9150C94E9150C94E9150C94E91568
:100020000C94E9150C94E9150C94E9150C94E91558
:100030000C94E9150C94E9150C94E9150C94E91548
:100040000C9411240C94E9150C94DF230C94B9231F
:100050000C94E9150C94E9150C94E9150C94E91528
:100060000C945B240C94E9154120636F6D69636106
:100070006C6C79206C617267650A206D6963726FC0
:1000800073636F706500412063616E206F66207737
:100090006F726D7300416E20696E76697369626C70
:1000A0006520626F7800547269616E67756C617269
:1000B0000A42696B6520776865656C730041206B47
:1000C0006579626F61726420776974686F75740A0C
:1000D000746865206C6574746572204500546865A9
:1000E00020636869636B656E20616E642065676775
:1000F0000A70726F626C656D2C2073616E7320657F
:1001000067670041204B697474656E0054776F20F7
:100110006C65667420626F6F74730041206C656655
:100120007420626F6F740041206E65772063617286
:10013000004120706F6E7921210A20636865636B2E
:1001400020756E6465722070696C6C6F7721004851
:10015000616C66206F6620612073696E676C650A4A
:1001600063686565746F00412064696374696F6ECC
:1001700061727920647265737365640A7570206CAE
:10018000696B652063616B65000000000023002639
:1001900000290000000000240027002A00000000C1
:1001A00000250028002B00040404040404040402B5
:1001B0000202020202030303030303010204081004
:1001C00020408001020408102001020408102000D1
:1001D0000000080002010000030407000000000006
:1001E000000000000000000000000000000000000F
:1001F00000000000000000000000000000000000FF
:10020000000000000000000000000000000000806E
:10021000010000000000000000000000000000805D
:1002200001000000FC0700000000000000000000CA
:1002300003000000FE0700000000000000000000B6
:1002400006000000FF0700000000000000000000A2
:100250000C0000801F001F000000000000000000D4
:10026000180000C007C01F000000000000000000D0
:10027000100000E003F81F00000000000000001163
:10028000000000F001FE0300000000000000001B61
:10029000400000F080FF0000000000000000000EA1
:1002A00000000070F01F0000000000000000000EC1
:1002B00000000000FC070000000000000000001F1C
:1002C00000000000FF010000000000000000001816
:1002D000030000803F00000000000000000000F06C
:1002E000010000C00F00000000000000000070E0EE
:1002F000000000E003000000000000000000F80023
:10030000000000E001000000000000000000880183
:10031000000000E0000000000000000000000E03EC
:10032000000000F0000000000000000000000C06CB
:10033000000000F00000003E000000000000180077
:10034000000000700000003B000000000040300092
:1003500000000070000000190000000000F06100C3
:10036000000000700000000F00000000009041003D
:1003700000000070000000C70000000000D800006E
:100380000000007000000866000000000078000017
:10039000000000000060083C0000000000300C007D
:1003A0000000000000C0080000000000007007000E
:1003B000000000000080090000000000C0E0010013
:1003C000C001000000003F0000000000200000000D
:1003D000C00100000000FE01000000003006000027
:1003E000E001000000000C0000000000F00F000021
:1003F000E00100000078180000000000600C000020
:10040000F038000000EC1000E001000000040000E3
:10041000F038000000E60000B0030080070700008D
:100420007838000000B00100900100C00601000013
:100430007838000000900300F00000600600000023
:100440003C38000000980100700C00E00300000040
:100450003C78008071F80000300600C031000000D8
:100460001E780000F37000C6E10300C01800000011
:100470001E7000009E0100CC830000870F0000006A
:100480000E7000000C03003806000001020000009E
:100490000F7000001C0600380C0040010000000036
:1004A0000F780030180000301800C00100000080F4
:1004B0000778001830000060000080010000008014
:1004C00007781C0C6000B0C100000003000000C0F1
:1004D000033C1C8C4300E08001000E02000000E0A1
:1004E000033E1CFC0700E00001003F06000000E0A6
:1004F000011E1C380400F00000003100000000F074
:10050000000F1C000600800100C06100000000F028
:10051000800F1C000200003F008061000000007C92
:10052000C0071C800300000E000063000000007C78
:10053000F0031C8000000000000036000000003FB7
:10054000F8011E000000000000001C000000C01F99
:10055000FE001F0000000000000018000000E00F77
:100560003E801F0000000000000018000000F8039B
:100570001E80070000000000000030000000F801AD
:10058000008007000000000000002000000078004C
:10059000000000000000000000000000000000005B
:1005A000000000000000000000000000000000004B
:1005B000000000000000000000000000000000003B
:1005C000000000000000000000000000000000002B
:1005D000000000000000000000000000000000001B
:1005E000000000000000000000000000000000000B
:1005F00000000000000000000000000000000000FB
:10060000000000000000F8010000000000000000F1
:10061000000000000080FF0F00000000000000004C
:100620000000000000E0FF7F00003000000000003C
:100630000000000000FFFFFF01003000000000008C
:1006400000000000C0FFFFFF0300380600000000AC
:1006500000000000E0FFFFFF070018060000000098
:1006600000000000FCFF01001E0018060000000052
:1006700000000000FE3F000010001C06000000000B
:1006800000000000FF07000000001C060000000042
:1006900000000080FF03000040001C060000000076
:1006A00000000080FF01000040001C060000000068
:1006B00000030080FF01000040001C060000000055
:1006C000000300C0FF00000040001C060000000006
:1006D000000700C0FF0080FF41001C060000000072
:1006E000000600C0FF00AC005E001C06F000000029
:1006F000000600C0FF40FF805F001C07F8010000FB
:10070000000E00C0FFB0FFC02D00DC07FC0300009E
:10071000000E00C0FF0880002000FC0F9C030000BA
:10072000000C00E0FF0501800300FC0F9C030000AB
:10073000001C00E0FF85710000007C0E8C030000AF
:10074000000C00E0FF010C9033001C1C9C03000017
:10075000000000F0FF8179C027001C1CFC01000094
:10076000000000F0FF01FD0C20001818FC00000044
:10077000000000F8FF8011404000380060000000D9
:10078000000000F8FF0000C48000380000000000F6
:10079000000000F8FF0000800000380000000000AA
:1007A000000000F87F0000FA800030000000000028
:1007B000008001F87F00006CC00200000000000013
:1007C00000C003F87F0000103903000000000000A3
:1007D00000E003F87F00C0100701000000000000E7
:1007E00000C003F0FFE8687C800900000000000002
:1007F000000000F0FF1806BF01100000000000001C
:10080000000000E07F60803F7E30000000000000BC
:10081000000000E0FFE0C180003C00000800000094
:10082000000000C07F003873001000001C7800003A
:10083000000000C03F00001C003000E018FC030076
:10084000000000801F000000042000E038FE0700C8
:10085000000000801F006000082000C0380E0E005D
:1008600000000080CF002018184000C0380E0E0095
:1008700000000080EF003468100000C0791E0C00FA
:1008800000F00380C7001268108001C07D3E0E009A
:1008900000F00780430013C810C000C07F7C0E002A
:1008A00002F81FC021001100104000C067F80F00BF
:1008B000077C1F80190011001080008063F0030086
:1008C0000E1E1C00F000110010F0008003800100DB
:1008D0000E0E18C0C3001100109001800300000626
:1008E0001C0E1CE047031100201000800300000EC6
:1008F0001C0E1CE04F031900402000000300000EF6
:100900003C1E1CE0C7820800004200000000000EF0
:100910003FFC1EE0C7040C00007C0000000000FC4F
:1009200073F80FC0C704060000010000000000FCBF
:10093000F3E00700811C000000010000000000FC43
:10094000E0000000000C0000000100000000007C3E
:10095000E0000000004C0620880100000000007844
:100960000000000000CC1A63880000000000007046
:1009700000000000008433B788000000000000F091
:1009800000000000000067919C010000000000E0F2
:10099000000000000000C4C1F601000000000000DB
:1009A000000000000000C0E00300000000000000A4
:1009B0000000000000000000000000000000000037
:1009C0000000000000000000000000000000000027
:1009D0000000000000000000000000000000000017
:1009E00000000067014F01310127011B010C0103C9
:1009F00001DD00BD00A600950086006800616E6400
:100A0000207265737461727400556E61626C65204A
:100A1000746F2073746172742074686520616363FD
:100A2000656C65726F6D657465722C2063686563B3
:100A30006B20636F6E6E656374696F6E7300850201
:100A400003020304010204060B00FE08FE09FF0175
:100A50007902F608FB2007DEF8F93700210ADEF8F4
:100A6000A1B43B98E604220BDEF8915A9225395F37
:100A7000002311DEF8094996448394448394644921
:100A80000E03240EDEF8A1704A3A8E49A7314700C2
:100A90002510DEF89128694AC2344CA2A4298701A6
:100AA000260FDEF89130C992B0D2D4A6E4280027F0
:100AB00009DEF821B1CE3700280BDE38AB61DA9CB5
:100AC000C63900290CDEB8E2344E1BD33087002A29
:100AD0000DDEF8C949980D5A98E454002B0BDEF846
:100AE00019D26CD0D29C0C2C09DEF8F9248A45006E
:100AF0002D09DEF8B90D3937002E08DEF8F924EAA1
:100B0000042F0DDE788B6998866998E61800300B03
:100B1000DEF8112D91FA6F3A01310ADEF8A1504B3F
:100B2000D2DE09320CDEF8812D4A8BAD430E033341
:100B30000BDEF88139CDE4B4B413340DDEF8A1D066
:100B40009664493684694E350CDEF881214AD339E2
:100B50002DED04360CDEF8112D4DB7A8379D00376A
:100B60000CDEF881212DA6615AA700380CDEF811A1
:100B70002D6AD3A2DE7402390BDEF8112DEA6DADB9
:100B8000E9043A0ADEF859451D1375023B0BDEF8FD
:100B900059451D13C522003C09DEF84961733B0C21
:100BA0003D0BDEF819071D187436003E09DEF8E12A
:100BB0008EED24003F0CDEF891294BC33A98E604F1
:100BC000400EDEF8212D4A22A59FA4784701410D51
:100BD000DEF811518B9A86A8EF3000420CDEF881C6
:100BE0002D6ADAA29E7602430BDEF8112DAA76CA90
:100BF0007402440DDEF80131C9A2FE92E9140045E9
:100C00000DDEF881214AD32DAD0E390C460CDEF8ED
:100C100091214AD32D6DA700470CDEF8112DAA565D
:100C2000A46E3B0C480CDEF881A8A721EAEF300047
:100C3000490ADEF89131ED7187014A0ADEF821B5E3
:100C400053379D004B0FDEF881A84B26265992455D
:100C5000ED30004C0ADEF881B4AF430E034D0EDEDA
:100C6000F8812CF1D26F499664390A4E0FDEF88173
:100C7000A8498994289112A93B0C4F0ADEF8112D3E
:100C8000EA7FD309500CDEF8812DEA694BEB240092
:100C9000510DDEF8112DEA27254A343907520EDEB0
:100CA000F8812D6ADA922CC9A27618530BDEF8115E
:100CB0002D2A37D574025409DEF881414BFB4E557D
:100CC0000ADEF881A8FF379D005610DEF8812CC996
:100CD000922CC9A2244BC234275711DEF8812CC9AB
:100CE000922CE9CB20255992C300580CDEF881A83C
:100CF00037518B7A8701590EDEF8812CC9A2244B1B
:100D0000C2B49D005A0EDEF881210DD3300DD321DF
:100D100087015B09DEB8B6B45F77005C0CDE78D281
:100D2000388DD3388DD3185D08DEB8D6FEB6035E95
:100D30000ADEF8A13089B29C0F5F09DEF8F961C8BC
:100D400061006009DEF81135CEF902610BDEF8C9E9
:100D5000723675DB6100620BDEF88134DDA27EDA6B
:100D600009630BDEF8C95A542DEF3000640BDEF82E
:100D7000B1349BFADB0E03650DDEF8C95A140D5130
:100D80001AEF3000660CDEF8212D0D872C6DA700C0
:100D9000670CDEF8C9539F86342A4D00680CDEF8D4
:100DA00081B42229517F8701690BDEF8D21C533BA5
:100DB000EE30006A0BDEF8D21C537BAA69006B0E82
:100DC000DEF881B454C9C4248BDA61006C09DEF802
:100DD00011B58F3B0C6D0BDEF8A983D2FFEF280015
:100DE0006E0BDEF8A989A444FD1D066F0ADEF8C962
:100DF0005AD46F3A01700BDEF8A95BD44F5B1A022C
:100E0000710ADEF8C9537F5B2B00720BDEF8A94331
:100E10009664693B05730ADEF8C9532AABD14E7458
:100E20000CDEF891341CB2B4598701750ADEF8A9BA
:100E300051FFB6C300760DDEF8A959924549968454
:100E4000694E770DDEF8A95992257DDA921C067855
:100E50000CDEF8A9519BA845ED3000790CDEF8A90D
:100E6000516F49A686A1067A0BDEF8A9431AB60E81
:100E7000390C7B0BDE38B5B426CA6959067C08DE0E
:100E8000F8D2FE1D017D0CDE78E4B42C6A694D8732
:100E9000007E0ADEF89128E994F305A00BDEF879CC
:100EA000CA922C197414A10ADEF819D21C4C3B0109
:100EB000A210DEF829E194644996644938E60800F6
:100EC000A30EDEF8212D2A8E699825838E02A40DAB
:100ED000DEF8A959B425D994E54400A510DEF881BF
:100EE0002CC9A2241AB46CD0D29C00A60ADEF8D277
:100EF000765ADA8E00A70FDEF8112DCA522D6A53EA
:100F0000B3289300A809DEF8915A92F303A910DEE2
:100F1000F8112D4A1265BB294A29D31100AA0DDE0A
:100F2000F811399B861C19724600AB0CDEF859A3E8
:100F3000246A8B722200AC09DEF8B90D699D0AADF6
:100F400008DEF839EEDC00AE12DEF8112D4A124B45
:100F5000B2248B2551A24C4700AF09DEF88121E76E
:100F60006700B00ADEF8112D6AD37903B10DDEF8FF
:100F700029693668690E0D3A0AB20BDEB8B4282C1E
:100F80000E394F00B30ADE78E64C8E76DE00B409E7
:100F9000DEF8B1B0CE3700B50CDEF8A9517F9194E0
:100FA000280D01B611DEF89121E993922559922579
:100FB0005992A300B708DEF839DA5901B809DEF80A
:100FC000F996C6D104B909DEF842B59D3700BA0CCE
:100FD000DEF8112D6AD3A1216704BB0CDEF819A33A
:100FE0002C6A89722A00BC10DEF891508D2A9998DB
:100FF0004489A80D6102BD0FDEF891508D2A9998A1
:101000004449350C07BE10DEF801398C32694CA218
:1010100044D4863001BF0BDEF819D21C6CCDA2057A
:10102000C00CDEB8E2D0164543D47718C10DDEF807
:10103000C254D4A26888FA0E03C20EDEF8C224138A
:10104000B5281AA2BEC300C30EDEB89228096D519E
:1010500034447D8701C40DDE78EC88A845D110F5B5
:101060001D06C50EDEB8B42813B5281AA2BEC300EB
:10107000C610DEF89121D2922CB9255992253B0A4F
:10108000C70CDEF8112DAA76CAD43003C80EDEB81C
:10109000E26C88D2744BD3218701C90EDEF8C2708E
:1010A00088D2744BD3218701CA0FDEF8C2241AA25A
:1010B00034DDD274C86100CB0EDE78ECC010A5E937
:1010C00096A6430E03CC0BDEB8E2704C3BEE30002C
:1010D000CD0ADE388B63DA718701CE0BDEF8C224CD
:1010E0001BD38E3B0CCF0BDE78ECC89876DC61000E
:1010F000D00FDEF80131C9A264897AC9740A00D11F
:1011000011DEB89228C9A2488994289112A93B0CF3
:10111000D20BDEB8E2508BFA379D00D30BDEF8C25B
:10112000548BFA379D00D40BDEF8C224D3A2FE4DB7
:1011300027D50CDEB8922809B5A87FD309D60BDED7
:1011400078EC8816F56F3A01D70DDEF8A95994842A
:101150009528CB8900D810DE78A3A9454A242552CA
:10116000A2D2948300D90ADEB8E22CEA7FD309DA4E
:1011700009DEF8C252FF9B4EDB0BDEF8C22447A209
:10118000FE4D27DC0ADE78EC40D4FFA613DD0CDE32
:10119000386B952C4AC2B49D00DE0DDEF88134DD3B
:1011A000A2A62DCD4900DF0EDEF8112DAA64491646
:1011B000F5458701E00CDEB8E21C93B3A9DB0E0312
:1011C000E10CDEF8C21C94B3A9DB0E03E20DDEF8DD
:1011D000C22487E46CEAB6C300E30EDEB89228C9E5
:1011E00031399BBAED3000E40EDEB8922CC92139BA
:1011F0009BBAED3000E50DDEF8C2240CE56CEAB6D2
:10120000C300E60FDEF8A98A964443524B324547A5
:1012100001E70BDEF8C95A542D8F3500E80EDEB811
:10122000E21CD3A26888D2788701E90EDEF8C21CDE
:10123000D4A26888D2788701EA0FDEF8C22487B486
:10124000281AA234DE6100EB0FDEB8922CC9212DE2
:101250008A86288D7718EC0BDEB8E21C533BEE3003
:1012600000ED0BDEF8C21C543BEE3000EE0BDEF856
:10127000C22487D48E3B0CEF0CDEB8922CC921B56A
:10128000E30E03F00CDEF8812493C324EA9B4EF1B5
:101290000EDEB89228C9A14452A2FE0E03F20BDE64
:1012A000B8E21CD3A27ED309F30BDEF8C21CD4A291
:1012B0007ED309F40CDEF8C22487B4A8DF7402F5EB
:1012C0000DDEB89228C9312DEA379D00F60DDEB843
:1012D000922CC9212DEA379D00F70CDEF829690E02
:1012E0000D3A94E604F80EDEF869D1D4222951694A
:1012F000CA4100F90BDEB8E21CEABFED3000FA0B80
:10130000DEF8C21C8BFAB71D06FB0CDEF8C22447C0
:10131000A2FE6D8701FC0DDEB8922CC991A87FDB7F
:101320006100FD0EDEF8C21C8B7A4B32350C3500A5
:10133000FE0FDEF881B492295127254AB23404FF0A
:101340000FDEB8922CC991A8B72453C350030000F4
:1013500000100164056301C9055E022E058CFFFFC4
:1013600001000FDE78861C12B5281AA2BEC3000148
:10137000010DDEF8911D92B3A9DB0E0301020EDE12
:1013800078A24CB445D110F51D0601030EDE78A2FB
:101390004CC7E46CEAB6C30001040EDEF811518BB1
:1013A0009A86A88F710201050CDEF8C97236751B8A
:1013B000E30401060CDEF8C2548BAA4D994E0107D6
:1013C0000CDE38EB981655CB3B0C01080DDEF8C24D
:1013D00024D3A26A53A61301090EDEF8C22487B4EF
:1013E000A85ADE6100010A0CDEB8744C8BAA4D9934
:1013F0004E010B0DDEF8D21CD3A26A798701010CD5
:101400000DDEB89230D4A26A53A613010D0EDEB8D9
:101410009230C7B4A85ADE6100010E0EDE788AA1B0
:101420009864515F329D02010F10DE38B524B32558
:101430005992255912EA04011010DEF80131C9A2AF
:1014400064897AC9740A0001110DDEF8B16C08B321
:10145000A96F3B0C011210DE78861C19A234DDD274
:1014600074C8610001130FDEF8911DD2A26888D202
:10147000788701011410DE78A24C1BA234DDD274EF
:10148000C86100011510DE78A24CC7B4281AA23436
:10149000DE610001160FDEB8746888D2744BD32168
:1014A000870101170FDEF8D21CD3A26888D2788793
:1014B0000101180FDEF881214AD32DAD0E619C0089
:1014C00001190EDEF8C95A140D511A8F7102011A52
:1014D00010DEB892301BA234DDD274C86100011B4B
:1014E00010DEB89230C7B4281AA234DE6100011CA5
:1014F0000FDEF8C224D3A26A2275DB6100011D0F42
:10150000DEF8C22487A63E0D69549A00011E0FDE44
:1015100078A24CD4A26A2275DB6100011F0FDE782D
:10152000A24CC7A63E0D69549A0001200EDEB87485
:101530004C8BAA89D46D870101210EDEF8D21C9B49
:10154000FA34A451690201220DDEF8112DAA56A425
:101550006E630D01230EDEF8A1309DFA34A45169AB
:101560000201240EDEF8C22447A2A621EA3B0C01A8
:10157000250EDEB8C2244B2B9212F51D0601260E55
:10158000DEF881A869884A43D4771801270FDEF86E
:101590008170C8D24452A2BEC30001280DDEB892A9
:1015A0002809C7B4E30E0301290DDEB89228C9311A
:1015B000B5E30E03012A0CDE78861C1AD38E3B0C91
:1015C000012B0CDEF8911D523BEE3000012C0CDE9D
:1015D00078A24C1CD38E3B0C012D0CDE78A24CC79C
:1015E000D48E3B0C012E0CDEF89131ED718C130082
:1015F000012F0CDEF8D21C533B8E710201300CDE41
:10160000F874684C3BEE300001310ADEF8C96AC755
:101610001D06013211DEF88148C9922CC9922CE9CD
:10162000A71C0601330FDE78A2764091FACB9266B2
:10163000120001340CDEF8C224549BBAE9040135CF
:101640000DDEF8C22487D49E6A1A00013610DEF837
:1016500081A84B26265992456D610801370FDEF8A7
:1016600081B454C9C4248BDAC21001380DDEF8A944
:1016700051976C8BDA610001390BDE386B69AF432F
:101680000E03013A0BDEF8C254ED718701013B0BEA
:10169000DEF881B4AF435803013C0ADEF811B58F80
:1016A000630D013D0DDEF8A4962CED3AE430000107
:1016B0003E0CDE3815A992A51D7702013F0EDEF81B
:1016C00081B42DC992341D721801400BDEF801B5AA
:1016D000A96BB81301410DDEF891B49259AB438E5A
:1016E0000201420CDEF811B5AAA9C51D060143107E
:1016F000DEF8C252A4444A944889D41D0601440E1F
:10170000DEF8C21C4B2425EAEF3000014511DEF85B
:1017100081A8498994289112A95B180201460DDE1F
:10172000F8A989A444FD2D0C01014710DE788AA593
:10173000488994289112A93B0C01480EDEB89230DA
:1017400087124989FA3B0C01490EDE38D4304E2409
:1017500025EAEF3000014A0EDEF8812453A2FE454F
:101760004A7418014B0DDEF8A989A444FD35930095
:10177000014C0CDE78861CD2A2FE4D27014D0CDEFA
:10178000F8911DD2A27ED309014E0CDE78A24CD472
:10179000A2FE4D27014F0DDE78A24CC7B4A8DF741E
:1017A0000201500CDEB82A51A645FD9B4E01510D99
:1017B000DEB82A510E6951BFE904015212DEF891D8
:1017C00021A92559B2D4922C09871C0501530FDE9B
:1017D000F8C943D265A925E190A30001540FDEF8B2
:1017E000C2708B9AB6248BDA610001550EDEF8C206
:1017F0001C1BB2244BDB2900015610DEF8812D6A38
:10180000DA922CC9A2B6300401570DDEF8A943962E
:10181000646973980101580FDE788AE116356D49C5
:1018200016B5C30001590FDEB8923087862CC9D295
:10183000760A00015A0DDEF8C2548BCA7254D309DD
:10184000015B0CDE38EBD894CA6AB413015C0EDE7F
:10185000F8C224D3A2B21CD57402015D0EDEF8C218
:101860002487A65456A39D00015E0DDEF8112D2A93
:1018700037D5D43003015F0DDEF8C9532AABD11A36
:10188000660001600EDEB89230D4A2B21CD574029C
:1018900001610EDEB89230C7A65456A39D000162C6
:1018A0000CDEF881414BFB1C460001630DDEF89114
:1018B000341CB2B459AC0101640CDEB892301BB4D4
:1018C000B4770201650DDE38A59668C8D2661D069C
:1018D00001660CDEF881414BC3316D2701670FDED5
:1018E000F891341CB270C8D258870101680CDEB878
:1018F0009228C9A1FE9B4E01690DDEB89228C9A1AC
:10190000FEDB0E03016A0CDE78861C89FADF7402A6
:10191000016B0CDEF8911D89FAB71D06016C0CDE17
:1019200078A24C87FA6F3A01016D0CDE78A24C87E1
:10193000FA6F3B0C016E0CDEF8C224CCA2FE4D27E0
:10194000016F0DDEF8C224CCA2FE6D870101700C80
:10195000DEB82A518E44FD9B4E01710DDEB82A512E
:101960008E44FDDB0E0301720CDEF881A8FF3735D3
:101970004E0001730CDEF8A951FF36C60900017450
:1019800012DEF8C224CA922CE9CB20255992C3005A
:10199000017510DEF8C22447B2244BFAB425390C85
:1019A00001760FDEF8C224CA922C4AC2B49D00010F
:1019B000770FDEF8C22447A2DE924C0D430D01786A
:1019C0000EDE78EC4096645112A6ED0401790EDE2D
:1019D000F8C27048C36A980E390C017A0EDEF8C25C
:1019E0001C1BD2B075C86100017B0EDEB87468485C
:1019F000C36A980E390C017C0EDEF8D21C1AD2B0E4
:101A000075C86100017D0FDEB892301BD2B01AA6F6
:101A1000430E03017E0EDEB892308786346C1D7251
:101A200018017F0CDEF8212DC9D2DE290001800DBE
:101A3000DEF88170C8D22DEA6927018110DEF891A5
:101A400029E98B98644996643A0C01820DDEF8818D
:101A50002D4DB7A8A79D0001830CDEF8812DDDA2D6
:101A60007EDA0901840DDEF881504DB7A8A79D00EC
:101A700001850CDEF8A9A1BA454D3B0101860CDEBB
:101A8000F8112D4A3BD5740201870CDE38252DAAAA
:101A900076CA740201880DDEF8312DD4A26A7987E6
:101AA00001018910DEF80131C9A264897AC9740A7A
:101AB00000018A10DEF89129E96F49966449A6C3AE
:101AC00000018B0CDEF891B536F56D8701018C0CA9
:101AD000DEF891359BFADB0E03018D0DDEF8C95A55
:101AE000D49B1A471300018E0DDEF88121ADAD4D58
:101AF000430E03018F0DDEF8112D4A4B43D44D27C1
:101B000001900DDEF8112D2A6B6929D30901910E80
:101B1000DEF891214AD32D0DC59C0401920DDEF80B
:101B2000212D0D872CED260201930DDE38252DAADF
:101B300056A46E3B0C019411DEF8812C89B2240C62
:101B4000C5244BC29C0001950DDEF881345DFAFF7F
:101B500094C30001960BDEF80131EDD4A613019772
:101B60000DDEF891310DC7B4B8C300019810DEF84E
:101B700081A8D24D4CB2248BDA610001990FDEF8B6
:101B8000112D8D2A999864513B0C019A0CDEF811A5
:101B9000B538A6C51D06019B0EDEF881240CE53084
:101BA00089FA0E03019C0DDEF881A4FFFFD390A3F8
:101BB00000019D12DEF891A8498994289112539250
:101BC000E52800019E0CDEF8A989A444FDB50201B8
:101BD0009F0DDEF8112D6A1AA2BEE90401A00BDEEA
:101BE0007823A5D4FFA61301A10CDEF8699152EA6F
:101BF000379D0001A20DDEF811A5B2F4FF53B50028
:101C000001A30CDEF8C94A65E99FAA0501A40CDE10
:101C1000F89129E96F625A2701A50DDEF8312DDB15
:101C2000A27EDAD21001A610DEF881748B9AB62457
:101C30004BB228CD0101A70DDEF8112D4AC3D628DD
:101C4000D30901A80CDEF8A9732889F10E0301A9B4
:101C50000EDEF881218AAB6175C8610001AA0BDE36
:101C6000F8913009D53E0B01AB0EDEF891341CB271
:101C7000B459CD240001AC0CDEF89121A92569EFFF
:101C80000401AD0DDEF8212D1CB2B459870101AE5F
:101C90000CDEF881414B7BD6510001AF0CDE78930E
:101CA0004889FADF740201B00DDEF86949A444FDE9
:101CB000B6C30001B113DEF801454AA22CC9922C2B
:101CC000C9922CDA610001B20DDEF881248BFA2F63
:101CD000614E0101B30CDEF881A8D253DA9D0201F6
:101CE000B40CDEF8A951A51FD3620801B510DEF8C7
:101CF00081210DB3214BC374C8610001B60EDEF81B
:101D0000A943980D59980E390C01B70EDEF88121C0
:101D10000D43398D6A3A0101B80EDEF881218A53EC
:101D20002D2D653A0101B90EDEF8A94314A75A5AC0
:101D3000CA240001BA0EDEF8A9431A8672A6C5129B
:101D40000001BB10DEF8812D4AC36CC8C274C861A3
:101D50000001BC0EDEF881214AD3398D4A3B0101D6
:101D6000BD0CDEF8A94394CE51692701BE0DDEF803
:101D7000A1341CD338AAE90401BF0EDEF8A949A694
:101D800044BD64621A0201C009DEF8A1B4DF090192
:101D9000C113DEF8915A92255992255992255992EC
:101DA000C30001C20EDEF8A1B43668D9A0A539017E
:101DB00001C30BDEF8A1B43B98E60401C412DEF8BF
:101DC00092448914A55FA444522245470101C511DC
:101DD000DEF8924489C464E9174989141D0501C6D7
:101DE00010DEF8924C0C87A45FA4441B721401C748
:101DF00012DEF88148C9922CC9922CE9CB90C3001D
:101E000001C813DE78932C4923254BB2244BB264CE
:101E100049330501C90EDE3813A99A48FD654933D7
:101E20000901CA10DEF881646959922559FA8B0EAE
:101E30000301CB0FDE7893DE96644996FE6BA60015
:101E400001CC0DDE78EB8094F4FF6BA60001CD0E83
:101E5000DEB89230B445D110F51D0601CE0EDEB8C5
:101E60009230C7E46CEAB6C30001CF0CDEB8923002
:101E70001CD38E3B0C01D00CDEB89230C7D48E3B05
:101E80000C01D10CDEB89230D4A2FE4D2701D20D48
:101E9000DEB89230C7B4A8DF740201D30CDEB8926A
:101EA000308BFADF740201D40CDEB8923087FA6FFF
:101EB0003B0C01D50DDE78862CC991A87FD3090192
:101EC000D60EDE78861CB10351BFED300001D70D70
:101ED000DE781249C991A87FD30901D80DDEF8C276
:101EE00050D181A8DF761801D90CDE782CED40D4D2
:101EF000BFE90401DA0EDEB89230537420EAB71D50
:101F00000601DB0DDE789428D191A87FD30901DC8E
:101F10000DDEF8E248D181A8DF761801DD0CDEF88D
:101F2000A9731A0D514D2701DE10DE78862CC921C8
:101F3000518BA221EA0E0301DF0EDE78861CB1234D
:101F40007236D5761801E00FDE78861CD2312D8AE4
:101F500086A83B0C01E10EDE78861CD231399B6AE3
:101F60003B0C01E212DE78861C1A222DC906A596CA
:101F700064C98E0201E311DEF8911DB125D190D420
:101F8000924CD1510001E40FDEF8112DAA56A46441
:101F900089B21D0601E50DDEF8C9539F867089A23E
:101FA0000901E60FDEB89230D4A26A2275DB610027
:101FB00001E70FDEB89230C7A63E0D69549A0001C2
:101FC000E80EDE788AA52E999864513B0C01E91140
:101FD000DEB89228C9D2A892894916B5C30001EA91
:101FE0000CDEF8112DEA7F53E30401EB0CDEF8C997
:101FF0005AD46F6A9C0001EC0EDE78861CD2A2FED9
:102000004D8D130001ED0DDEF8911DD2A27E53E33C
:102010000401EE0EDEB892301BD23094A39A4E012A
:10202000EF10DEB892308786340CE534AA490001FF
:10203000F00DDEB89230C7D49E6A1A0001F111DEAD
:10204000F801C594F48B94484AA4E8280001F210E2
:10205000DEF801514C967E919448D1510001F31065
:10206000DEF8A1341C927E91126DC8510001F40E6D
:10207000DEF8C2548BAA89D46D870101F50EDEF813
:10208000C21C9CFA34A451690201F610DEF88124C6
:102090004BB2A4B2F43FE5300001F70FDEF8812423
:1020A00053A2964C4CEB240001F811DEB8E22C8AC6
:1020B000944889122991BAC30001F90EDEB8E21CD6
:1020C0004A2425EAEF300001FA0FDEF86C51266A47
:1020D000513444DD610001FB0EDEF8B430095339A0
:1020E0009B6A3B0C01FC11DE388B43A425D9A0D49C
:1020F000922CD9510001FD11DE38EB90A225D19030
:10210000D4924CD1510001FE11DEF8C2289A5A2413
:102110002552A2D294830001FF10DEF8C21C89A6CA
:102120001649894A530E02020010DE38A22CCA4416
:102130002D8A86A8EF300002010FDE38A22CCA21BA
:10214000399BBAED300002020FDEB8B42813B5286F
:102150001AA2BEC30002030EDEB8B42887E46CEAFC
:10216000B6C300020410DE38A22C8A86284DB7348C
:102170001D7218020510DE38A22CCA212D8A86286D
:102180008D7718020610DEB8B4281AA234DDD27496
:10219000C86100020710DEB8B42887B4281AA23438
:1021A000DE610002080DDE38A22CCAC6B4E30E03BD
:1021B00002090DDE38A22CCA21B5E30E03020A0C77
:1021C000DEB8B4281BD38E3B0C020B0CDEB8B4284F
:1021D00087D48E3B0C020C0DDE38A22CCAB4A87F2B
:1021E000D309020D0EDE38A22CCA212DEA379D003C
:1021F000020E0CDEB8B428D3A2FE4D27020F0DDE6E
:10220000B8B42887B4A8DF7402021010DE38A22CFC
:102210008AB6A8694BB2A81D0602110FDE38A22C9F
:10222000CA91214BB2B49D0202120FDEB8B428DA73
:10223000A2A62DC9A2761802130FDEB8B4284786CD
:102240002CC9D2760A0002140BDE38A22CEAFF4D0C
:102250002702150EDE38A22CCA91A87FDB6100028E
:10226000160CDEB8B42847A2FE4D2702170DDEB8C3
:10227000B42847A2FE6D870102180DDEF8112D2A41
:1022800037D5D4300302190DDEF8C9532AABD11A61
:102290006600021A0CDEF881414BFB1C4600021B53
:1022A0000DDEF891341CB2B459AC01021C0EDEF8FC
:1022B00081390CE534D3721200021D0DDEF8A973CA
:1022C00018CA69A68500021E0EDEB89230873A0D44
:1022D00051DF6100021F0DDE788AD58AA4447D8714
:1022E0000102200DDEF8814452A2FEAF150002214A
:1022F00011DEF8A134D4922CC9922C991231070224
:10230000220CDEF89152372DEA4D2702230DDEF81C
:10231000915237518BDA740202240FDEF881210DBD
:10232000D3300DD3398C0002250CDEF8A9431AB640
:10233000CE610402260EDEB8744CD4A26888FA0E70
:102340000302270DDEF8D21C93B3A9DB0E0302288B
:102350000EDEF881214AD32DAD0E610D02290EDE6D
:10236000F8C95A140D511A8F3500022A0DDE7886ED
:102370002CC9B4A87FD309022B0DDE78861CB123AB
:102380005AD49B4E022C0EDE78862C8992508BFA02
:102390004D27022D0FDE78862C89921CD3A2DE7485
:1023A00002022E0CDEB8744C8BFA379D00022F0C03
:1023B000DEF8D21CD3A27ED30902300DDE7886303F
:1023C0000DB5A8DF740202310DDE78861CD2312DE6
:1023D000EA4D2702320FDE78061DC8922C4AC2B49D
:1023E0009D0002330FDEF8911D897A4B32350C3592
:1023F0000002340DDEF801B52FCAA0E50800023551
:1024000010DEF8A95B92255992254B24E60002368E
:102410000EDEF891341CB2B445DB720402370ADEDA
:10242000F8C96A4F350D02380DDEF8A1349C92FED2
:10243000A71D0602390DDEF8C953D2FF34A61100DC
:10244000023A11DEF811259A5AA4215222256AC7B0
:1024500000023B11DEF891A9254BB22413954CCB19
:102460003100023C0FDEF8499996484926AA538E5E
:1024700001023D0EDEF891B438646975C85100025E
:102480003E10DEF881414B32514C432DC9720C0293
:102490003F0DDEF8C9532AABD1182B0002400CDEE9
:1024A000F8A9431AB6C6B10202410CDEF8112D4A52
:1024B0008B693B0102420CDEF8C95A9486699D0083
:1024C00002430FDEF8812D6ADAA264894A3B0102D9
:1024D000440DDEF881A8A741897AD309024512DEAE
:1024E000F8A1344CB224CA922CC9922C470102465E
:1024F00011DEF881216AC9B62413C521CA31000250
:10250000470FDEF8499996484324AA538E010248A2
:102510000DDEF821B5368451379D0002490EDEF8F4
:10252000D21C536B439846350D024A0CDEF891A934
:10253000FF454BD238024B0BDEF8C9537F5BE300FB
:10254000024C11DEF8812DAA448394644916B5C368
:1025500000024D0EDEF8A9439664E190A53905020C
:102560004E0FDEF8812CC992414AC2B49D00024F41
:102570000FDEF8A951D32025991A861A0002500CB3
:10258000DEF8894316356DB14E02510BDEF8C953A2
:102590007F53721402520BDEF8898916F5D34E026E
:1025A000530CDEF8112DDDA27EDA0902540BDEF8A1
:1025B000C95A9436ED0402550DDEF8C95A54AD6877
:1025C0005B0E0102560CDEF8B1349BFADB1A0702EF
:1025D0005710DEF8312DD4922CC9922C09750202C5
:1025E000580CDEF8C95A140D69692702590CDEF837
:1025F000A9731A0D514D27025A0CDEF8A9B3A80C85
:10260000514D27025B0CDEF8C953ACA5F10E030255
:102610005C0BDEF8A97326A7D14E025D0CDEF8A98B
:10262000B3A48469B413025E0FDEF8C95396245232
:102630009664D10E03025F0CDEF819D2B6214C333A
:102640000D026011DEF8312DD4922CC9926CCD921E
:102650004C0302610DDEF8C9539F86342A4D0002F7
:10266000620CDEF8C9539A48DD7618026311DEF871
:10267000A959126549188A499684110002640CDE32
:10268000F8A951266A519B4E02650CDEF8A9517FCC
:10269000D192B40202660EDEF8112D4D2425EAEF28
:1026A000300002670EDEF8112D4D2425EAAF9904A3
:1026B00002680DDEF8D21C53C3310D771802690A87
:1026C000DEF8C969671D06026A0BDEF8C963DAB86D
:1026D000C300026B0EDEF811B5A854C434DC6100EF
:1026E000026C0EDEF81135D492D298863B0C026D46
:1026F00009DEF811B53F0B026E11DEB8D574885AA9
:10270000B2248B92258D2600026F0CDEF8A949FFBA
:102710009F861C0502700CDEF8A949FF9F86B40055
:1027200002710CDEF8A983D2FFAF990202720CDEAF
:10273000F8A989A444FD630A02730CDEF8A989A4F0
:1027400044FD350E027410DEF8A951A4444A9448A1
:102750008954870102750DDEF8C95A140D51379D51
:102760000002760FDEF8C943524B965A120E390A10
:1027700002770FDEF80953966449FF94E4300002B3
:10278000780EDEF8A1349C92FEA7318D0002790C00
:10279000DEF819D2B6241B7218027A0CDEF8A1B446
:1027A000B7241B7218027B0CDEF819D2B6245B63C7
:1027B00001027C0CDEF8A9439664696F00027D0C6F
:1027C000DEF8A9439664696705027E0BDEF8C95AF4
:1027D000D4B54E02027F0BDEF8C95AD4DA0E0302DA
:1027E000800DDEF8A95BD4B445ED300002810CDE2B
:1027F000F8A951D31635ED0402820DDEF8C9532A2B
:10280000ABD1164B0002830ADEF8312DED370D02F5
:10281000840DDEF8312DED368469A60102850BDECC
:10282000F8A972DAACA30002860DDEF8312DED7145
:102830004A2A520002870CDEF8A972DA368469044B
:1028400002880CDEF891341CB2B4670502890DDEF3
:10285000F8A951D3A0446D3B0C028A10DEF8A959A7
:10286000944459922559B4C300028B0BDEF8A94950
:1028700016F59B4E028C0FDEF819D230C992284B08
:10288000B21C05028D0EDEF8C94936257D4BB21CFF
:1028900005028E0DDEF821B1AA2559D43B0C028F1A
:1028A0000DDEF8A95992454998D60902900CDEF838
:1028B000A9431AB60E691C02910EDEF8A9431AB696
:1028C000484396430002920EDEF8A9431A86721A14
:1028D000D52400029310DEF8A9431A867296444963
:1028E000A6240002940CDEF8112D4AC3B43B010269
:1028F000950CDEF8112D2AA7DD290002960BDEF8D3
:10290000A1B47354D30902970BDEF8C95A54EDBC35
:102910000002980DDEF8C95396F45BB4C300029927
:102920000CDEF8A95B146D51D34E029A0EDEF8C985
:10293000531629B5248B7618029B0EDEF8312D9C98
:10294000D244EAB6C300029C0CDEF8A951D310F5BC
:102950001D06029D0DDEF8D21C533B0E494D0302AD
:102960009E0EDEF8A9515B126A4954AD00029F0A1F
:10297000DEF8A9BD0E390C02A011DEF8312DD4927B
:102980002CC9922C09D5120002A10EDEF8112D4A95
:10299000C3341CD39C0002A20EDEF8112D2AA7E13D
:1029A00098E6140002A310DEF8A1341C927E911266
:1029B0006DC8510002A411DEF8A1341C927E9192E0
:1029C0009292460B0002A510DEF8A1341C927E9173
:1029D0009269084B0002A611DEF881345C945A22F9
:1029E000654916ED300002A70FDEF8812C8992258B
:1029F000EA6F6B260102A810DEF881345C94DE9247
:102A00002CA9184B0002A90FDEF891304D8621E960
:102A1000FF35530002AA0EDEB8D58A242659D432D7
:102A2000E40402AB0FDEB8D574885AB224D3061D75
:102A30000602AC11DEF8812C69DA92284B9AB62492
:102A4000870102AD0EDEF88121EA4E18A2EE3000B9
:102A500002AE0DDEF88959D42F5A92560002AF0DFE
:102A6000DEF88959D42F5A92C60102B00CDEB8D2D2
:102A7000744BB224E70902B10CDEF8B4744BB224F3
:102A8000E70902B20BDEF8724CADE95C0102B30A51
:102A9000DEF8912DADF30802B40ADEF8B1B4B6F356
:102AA0000402B50BDEF8A1B4B6EADC0002B60CDE17
:102AB000F8919A98643B4F0002B70DDEF8812C69BB
:102AC0004AB224E70902B80CDEF8915A12A661CE88
:102AD0001502B90ADEF8A134CCF90602BA0CDEF808
:102AE000915A1225399F0002BB0ADEF8A130D5F9B0
:102AF0000402BC0ADEF81135CCF90602BD0ADEF884
:102B00001131CEF9041E9E12DEF881216AC9922C81
:102B1000AA255992E83000FB000EDEF89128895A68
:102B20008625EA7718FB010FDE38B3244AA36490A8
:102B3000FA654701FB020DDEF891A9CB12F5CB8EA9
:102B400002FB0310DE78A321A925C93024FDDF5143
:102B500000FB040EDEF89121E96550FA7F4701FB86
:102B6000050EDEF8112DAA2C517FD25100FB061163
:102B7000DEF8B1341B92A82DC99228D25100000072
:102B80007A2511241FBECFEFD8E0DEBFCDBF11E004
:102B9000A0E0B1E0EAE9FBE502C005900D92A03E9D
:102BA000B107D9F727E0A0EEB1E001C01D92A1392D
:102BB000B207E1F715E1C1ECD5E104C02197FE01B0
:102BC0000E94BE2DC03CD107C9F70E94B3250C94CA
:102BD000CB2D0C940000CF92DF92EF92FF920F93D7
:102BE0001F93CF93DF93EC01842F8770E1E0F0E037
:102BF000082E01C0EE0F0A94EAF73E2F7E0199E7F6
:102C0000E90EF11CD7019C9110E0923018F41E2FB0
:102C1000913029F150E0487FE8ADF9ADC880D98006
:102C2000D60150969C91949F6001959FD00C1124E1
:102C30006C0D7D2D711DDF01A60FB71F011115C091
:102C40008C91812B83278D932150D1F7DF91CF91E8
:102C50001F910F91FF90EF90DF90CF90089530E09B
:102C6000D9CF110F330F222389F39C91912B9327F6
:102C70009C938F5F877021508111F3CF9CADA90F7A
:102C8000B11DF7019081923028F4913009F031E0C4
:102C900011E0E9CF31E0E7CF80E008951F93CF93B3
:102CA000DF93EC01198218821D8A188E1C861D86FE
:102CB0001E861F868FEF8E8B8A8FFE017E96CE0139
:102CC000C4961FEF11938E179F07E1F781EE9AE1EB
:102CD0009D838C8380EB9BE19F838E8387EF92E2C1
:102CE000998788878DE990E29B878A8730E020E08A
:102CF00040E069E0CE010E94E11AFE01E55BFF4F72
:102D0000118210828BEE95E19DAB8CAB88EE92E048
:102D100099AF88AF88E08AAF1BAE3D961082B0961F
:102D20001082319681E080833196808389E791E03B
:102D30009FAB8EABCE010E94F41BFE01E95BFF4FFF
:102D40001082329610823197108332961083EEA94A
:102D5000FFA90280F381E02DCE010995FE01E35B1E
:102D6000FF4F8CEB96E191838083C55ADF4F188229
:102D7000DF91CF911F91089580E008959091E7022F
:102D80009111FCCF91E09093E7029093E6022FEF30
:102D90002093E5021092E402260F2093E302909321
:102DA000E2029091E202880F892B8093E2028091E7
:102DB000E1028130F9F41092E1028091E202809305
:102DC000BB008091BC0083FDF8CF85EC8093BC00F4
:102DD0008091E7028130E1F38091E402861710F4DC
:102DE0006091E402A1ECB2E0E1EAF2E080E0861357
:102DF00003C0089585EEEACF9D9191938F5FF7CF41
:102E0000982F2091A00281E0213208F043C08091E8
:102E1000E7028111FCCF80919F0232E03093E702FC
:102E20009093E6029FEF9093E5021092E4022093C4
:102E3000E302AFE7B2E0E1ECF2E090E0291331C049
:102E40001092E2029091E202880F892B8093E202B5
:102E50008091E102813049F51092E1028091E20215
:102E60008093BB008091BC0083FDF8CF85EC8093FC
:102E7000BC008091E7028230E1F38091E5028F3F50
:102E8000B1F08091E5028032A1F08091E5028033BB
:102E900091F084E010927E021092A00210927D02C6
:102EA00008953D9131939F5FC9CF85EEE0CF80E0DB
:102EB000F1CF82E0EFCF83E0EDCF9B01DC011896EC
:102EC000ED91FC9141E067E10994662329F06A30B5
:102ED00019F0862F90E008958FEF9FEF08950895E1
:102EE0000895AF92BF92CF92DF92EF92FF920F932D
:102EF0001F93CF93DF936C017B018B01040F151F90
:102F0000EB015E01AE18BF08C017D10759F06991F7
:102F1000D601ED91FC910190F081E02DC60109955B
:102F2000892B79F7C501DF91CF911F910F91FF9008
:102F3000EF90DF90CF90BF90AF900895FC01538D3C
:102F4000448D252F30E0842F90E0821B930B541783
:102F500010F0CF96089501970895FC01918D828D10
:102F6000981761F0A28DAE0FBF2FB11D5D968C91A9
:102F7000928D9F5F9F73928F90E008958FEF9FEFE8
:102F80000895FC01918D828D981731F0828DE80FA4
:102F9000F11D858D90E008958FEF9FEF0895FC015E
:102FA000918D228D892F90E0805C9F4F821B91092B
:102FB0008F739927089588EE96E00E94CF1721E03D
:102FC000892B09F420E0822F089580E090E0892B7E
:102FD00029F00E94DB1781110C9400000895FC0178
:102FE000A48DA80FB92FB11DA35ABF4F2C91848D6A
:102FF00090E001968F739927848FA689B7892C93C7
:10300000A089B1898C91837080648C93938D848D19
:10301000981306C00288F389E02D80818F7D80831C
:103020000895EF92FF920F931F93CF93DF93EC01DC
:1030300081E0888F9B8D8C8D98131AC0E889F9895F
:10304000808185FF15C09FB7F894EE89FF89608362
:10305000E889F98980818370806480839FBF81E0E3
:1030600090E0DF91CF911F910F91FF90EF90089525
:10307000F62E0B8D10E00F5F1F4F0F731127E02E00
:103080008C8D8E110CC00FB607FCFACFE889F98938
:10309000808185FFF5CFCE010E94EF17F1CFEB8D38
:1030A000EC0FFD2FF11DE35AFF4FF0829FB7F8940C
:1030B0000B8FEA89FB8980818062CFCF0F931F93AA
:1030C000CF93DF938C01D0E0C0E0F801EC0FFD1F3F
:1030D0006491662341F088EE96E00E941118892BD6
:1030E00011F02196F2CFCE01DF91CF911F910F9178
:1030F0000895CF93DF93EC01888D8823B9F0AA89D6
:10310000BB89E889F9898C9185FD03C0808186FDA2
:103110000DC00FB607FCF7CF8C9185FFF2CF8081F1
:1031200085FFEDCFCE010E94EF17E9CFDF91CF9160
:103130000895833081F028F4813099F08230A9F02D
:1031400008958730A9F08830C9F08430B1F48091B7
:1031500080008F7D03C0809180008F7780938000F6
:10316000089584B58F7784BD089584B58F7DFBCF96
:103170008091B0008F778093B00008958091B00067
:103180008F7DF9CF1F93CF93DF93282F30E0F90184
:10319000E153FE4F8491F901E554FE4FD491F901BA
:1031A000E955FE4FC491CC23A9F0162F81110E943E
:1031B0009918EC2FF0E0EE0FFF1FE356FE4FA5919C
:1031C000B4918FB7F894EC91111108C0D095DE231B
:1031D000DC938FBFDF91CF911F910895DE2BF8CF45
:1031E000CF93DF9390E0FC01E554FE4F2491895585
:1031F0009E4FFC0184918823D1F090E0880F991FA5
:10320000FC01ED56FE4FA591B491FC01E356FE4F33
:10321000C591D491623071F49FB7F8943C91822F9C
:10322000809583238C93E8812E2B28839FBFDF9189
:10323000CF9108958FB7F894EC912E2B2C938FBFDC
:10324000F6CF3FB7F89480914D0290914E02A09135
:103250004F02B091500226B5A89B05C02F3F19F030
:103260000196A11DB11D3FBFBA2FA92F982F882706
:10327000BC01CD01620F711D811D911D42E0660FE1
:10328000771F881F991F4A95D1F708958F929F92B3
:10329000AF92BF92CF92DF92EF92FF926B017C01CF
:1032A0000E9421194B015C01C114D104E104F10415
:1032B000B9F00E942119681979098A099B09683EA9
:1032C00073408105910580F321E0C21AD108E1081D
:1032D000F10888EE880E83E0981EA11CB11CE4CF93
:1032E000FF90EF90DF90CF90BF90AF909F908F9026
:1032F0000895DC01ED91FC910190F081E02D09949D
:103300001F93CF93DF93EC01142F8E899F89288D13
:1033100031E030937D0220939F0210927E02109242
:10332000A0020E9479198E899F89DC01ED91FC91A0
:103330000190F081E02D612F099581E0DF91CF911F
:103340001F910C94001785ED8093BC008091BC0008
:1033500084FDFCCF1092E702089520912502260FEC
:103360003327331F21323105ECF42091E702FC01B1
:1033700090E080E0243069F082E00895A091250279
:103380002191AC014B5F5D4FA40FB52FB11D2C9364
:103390000196861798F380912502680F60932502A5
:1033A00080E0089581E008950895E0917C02809185
:1033B0007B02E81730F4F0E0EF55FD4F808190E09C
:1033C00008958FEF9FEF089590917C0280917B028A
:1033D0002FEF3FEF981748F4E92FF0E0EF55FD4F3E
:1033E000208130E09F5F90937C02C9010895809115
:1033F0007B0290917C02891B990B0895CF92DF92FA
:10340000EF92FF920F931F93CF93DF937C01CB0139
:103410008A0120917D02222389F0EB016B01C40E09
:10342000D51ECC15DD0569F06991D701ED91FC91B0
:103430000190F081E02DC7010995F3CF642F0E9420
:10344000AD19C801DF91CF911F910F91FF90EF90BF
:10345000DF90CF900895CF93DF931F92CDB7DEB763
:10346000698320917D022223F9F02091A00220326D
:1034700058F021E030E0FC013383228390E080E0CB
:103480000F90DF91CF91089580917E02E82FF0E0B8
:10349000E158FD4F998190838F5F80937E028093E6
:1034A000A00281E090E0ECCF61E0CE0101960E94A5
:1034B000AD19F7CFDC011A96ED91FC9130E020E0D8
:1034C0000994DC011496ED91FC9130E020E040E09D
:1034D0006AE00994DC011696ED91FC9130E020E061
:1034E00040E069E10994DC011696ED91FC9130E031
:1034F00020E040E068E109949A01DC011696ED9124
:10350000FC91462F67E10994EF92FF920F931F936E
:10351000CF93DF931F92CDB7DEB77C018B01D8012B
:103520006C91673129F150F46531A0F40F90DF916F
:10353000CF911F910F91FF90EF9008956A3118F18C
:103540006E3FA1F7F8014181498369E2C7010E94FA
:103550005A1A0BC0F80141814983D7011696ED91A3
:10356000FC9130E020E0C70109950E5F1F4FD7CFD7
:10357000F80181818983AE014F5F5F4F61E0C70130
:103580000E947C1AF2CF0F5F1F4FD7011696ED9164
:10359000FC9130E020E040E0C7010995C0CF462F04
:1035A000DC011696ED91FC9130E020E066E1099493
:1035B000462FDC011696ED91FC9130E020E065E1AC
:1035C0000994EF92FF920F931F93CF93DF93EC0137
:1035D000042F79016D3009F446C050F46B30C9F105
:1035E000693009F49FC06A3009F465C080E05CC0AE
:1035F0006E3009F44BC06F3099F70E94731AF701CF
:103600001381110F110F110F6C89160F60E4CE0199
:103610000E94D81A612F62956F706061CE010E947E
:10362000D81A612F6F70CE010E94CF1AF701648102
:10363000606BCE010E94CF1AF701408151816281F7
:10364000660F660F660FCE010E947C1A0150A1F72B
:1036500027C06BE171E0442311F066E171E0CE0117
:103660000E94841A20C0411109C06FE071E00E94DD
:10367000841AE881F98182898C8B15C068E071E039
:103680000E94841AE881F9818389F6CF0E94731A17
:1036900061E8CE010E94D81A602FCE010E94CF1A95
:1036A000CE010E946A1A81E0DF91CF911F910F91A4
:1036B000FF90EF900895EA85FB8530E020E040E040
:1036C00068E2CE010995EE81FF8130E020E040E024
:1036D00064E1CE01099541E06BE4CE010E945A1AE3
:1036E000E881F981448169E2CE010E945A1A40E0E2
:1036F0006BE4CE010E945A1AE881F981448169E2A3
:10370000CE010E945A1A41E06BE4CE010E945A1A7F
:10371000E881F981458169E2CE010E945A1A60E28E
:1037200071E09DCF85E591E09983888382E0A4CF05
:10373000CF93DF931F92CDB7DEB76983BE016F5F72
:103740007F4F0E945D170F90DF91CF910895462F14
:10375000DC011896ED91FC9130E020E060E20994E4
:10376000EF92FF920F931F93CF93DF938C01C62F9D
:10377000D42F7901673130F46531B8F4643131F018
:1037800080E01BC0673101F16A31D0F7D80118968B
:10379000ED91FC9197014D2F6C2FC801DF91CF91D6
:1037A0001F910F91FF90EF90099460E00E94A71B7A
:1037B0006D2FC8010E94981B81E0DF91CF911F916E
:1037C0000F91FF90EF90089561E00E94A71BDECF5C
:1037D0000F93DC01DE963C91DE97431BD496ED916E
:1037E000FC9109950F910895CF93DF93FC01A0817F
:1037F000B18182AD982F990F990F990F95AF50967F
:103800009C915097903208F09FE1990F990F990F72
:1038100094AF23AD922F990F990F990F96AF5196B0
:103820003C915197682F620F7727771F361717063D
:1038300014F4832F821B97AFEF01C05CDF4F880F1A
:10384000880F880F890F8883219680EF888354968C
:103850008D919C915597813F910508F48883EE5B8B
:10386000FF4F56968C918083DF91CF9108950F93EF
:10387000FC01EB5BFF4F308131965081451730F4EE
:10388000301738F0041728F080E013C03017D0F359
:10389000FBCFFC01ED5BFF4F30818C5B9F4FFC0148
:1038A0008081681740F481E0321718F081E0261714
:1038B00058F70F9108953217C8F3E6CF2F923F9231
:1038C0004F925F926F927F928F929F92AF92BF9230
:1038D000CF92DF92EF92FF920F931F93CF93DF93DC
:1038E000EC014C0183E4880E911CF40110823297A4
:1038F00020805E01F4E4AF0EB11CF50120823FACE4
:103900006E01F5E4CF0ED11CF60130823597408070
:103910007E01F6E4EF0EF11CF7014082349610812F
:10392000329760803196708032975080012F262D1B
:10393000472D652DCE010E94371CCD58DF4F8111D8
:1039400014C01882DF91CF911F910F91FF90EF90DB
:10395000DF90CF90BF90AF909F908F907F906F90AF
:103960005F904F903F902F90089581E0888355207D
:1039700011F0F4015082621410F4F50160823714E2
:1039800010F4F60170821415E8F6F7011083DACF0F
:103990000F93DC01802FFD01ED58FF4F908199239B
:1039A000E9F12223D9F1223020F0023079F56F5F5E
:1039B000621B082F0170FD0180FD32C0EB5BFF4FE1
:1039C0008081481758F131968081481738F5329731
:1039D000908131978081260F2617F0F46917D8F46B
:1039E0002FEF290F8217D0F4681708F4682F2917D2
:1039F00008F4922F961BD696ED91FC91D7970480F0
:103A0000F581E02D292FCD01099508C0033089F6F5
:103A10004F5F421BCECF682F691720F30F91089597
:103A2000ED5BFF4F80816817C8F33196808168177E
:103A3000A8F73296908131978081240F241778F46B
:103A4000491760F42FEF290F821740F7481708F441
:103A5000482F291708F4922F941BCDCF482F4917D0
:103A6000E8F6F2CF4F925F926F927F928F929F9281
:103A7000AF92BF92CF92DF92EF92FF920F931F937C
:103A8000CF93DF937C015B0100E420E840E060E03D
:103A90000E94371C8823C1F1C0E0670189E7C80E86
:103AA000D11C3701E8E76E0E711C442443944C0E80
:103AB000042D20E84C2F60E0C7010E94371C8823AA
:103AC000E9F0F60150804501D0E011E0F401849165
:103AD000812359F1F601508200E021E04C2F6D2F37
:103AE000C7010E94C81CDF5F110F21F4FFEF8F1A7E
:103AF0009F0A11E0D03851F7F6015082F0E1AF0E85
:103B0000B11CC42DC03489F6DF91CF911F910F9164
:103B1000FF90EF90DF90CF90BF90AF909F908F90ED
:103B20007F906F905F904F900895F3018081811195
:103B3000DACF81E0511080E0F6018083CDCF2130D3
:103B400039F020F0223031F0840F0895860F089567
:103B5000841B0895861B0895213039F020F022300F
:103B600031F0861B0895840F0895860F0895841BF5
:103B700008955F926F927F928F929F92AF92BF92C1
:103B8000CF92DF92EF92FF920F931F93CF93DF9329
:103B90005C01162F642EEC01C15BDF4FDC80ED80F1
:103BA0004C0189E7880E911CFE80FD18C12EF1168C
:103BB00008F4CF2C5B800C85202F4E2D6D2D8A8133
:103BC0000E949F1D782E202F4E2D6D2D852D0E9439
:103BD000AC1D482F662071F08A85F40180832C2D5E
:103BE000672DC5010E94C81C1F1548F01F19E394DA
:103BF000D12CDACF89858111F7CF8B85EECF1D0DC2
:103C00001C83ED82DF91CF911F910F91FF90EF9078
:103C1000DF90CF90BF90AF909F908F907F906F90EC
:103C20005F900895DC0118964C911897ED91FC91E6
:103C30001197249130E0042E02C0359527950A94FF
:103C4000E2F7842F860F883068F031961196FC9346
:103C5000EE93E49198E0941B01C0EE0F9A95EAF779
:103C60002E2B885018968C938FEF9FEF01C0880FF2
:103C70006A95EAF7809582230895FC01E60FF11D0D
:103C8000849190E0982F88273196E4918E0F911DB2
:103C900008956F927F928F929F92AF92BF92CF9230
:103CA000DF92EF92FF920F931F93CF93DF93EC017C
:103CB000062F142F7901FC01E55AFF4F80818130D6
:103CC00009F445C0D0F1823009F44BC0833009F4C7
:103CD00052C0FE01EF5AFF4F008331961083379791
:103CE0008081918147962FEFE216F10411F008F0E0
:103CF000E6C0E1E6EE16F10408F447C0FE01E15922
:103D0000FF4F20813181820F931F9C012F5F3F4F16
:103D1000F9014491411142C0712C872DDF91CF915F
:103D20001F910F91FF90EF90DF90CF90BF90AF90D9
:103D30009F908F907F906F900895FE01E35BFF4FFF
:103D40000190F081E02DCE010995180FC2CFFE0140
:103D5000E35BFF4F0190F081E02DCE010995081B38
:103D6000B8CFFE01E35BFF4F0190F081E02DCE0163
:103D70000995181BAECFFE01E35BFF4F0190F08168
:103D8000E02DCE010995080FA4CFF1E4EF16F10460
:103D900008F4BBCFFE01E359FF4FB3CFFC014491C0
:103DA0004E151F0409F086C00296009709F4B4CF9F
:103DB0007E01FFE4EF0EF11CF701918380831086F2
:103DC00071966081C7010E94121EF7018683729668
:103DD0006081C7010E94121EA82EF70187836E0121
:103DE000F9E7CF0ED11CF6019081F701928781E0AF
:103DF000911180E0F7018387FE01EE59FF4FB080FB
:103E00006B2DC7010E94121E882EFE01ED59FF4F37
:103E10001081612FC7010E94121E982EFE01EC59DD
:103E2000FF4F0081602FC7010E94121E015041E028
:103E300050E09A0101C0220F0A95EAF7782E721A13
:103E4000F701068110160CF068CFBA94CA0101C0C0
:103E5000880FBA94EAF7881AB4849A0C115001C0FA
:103E6000440F1A95EAF7F42FF9199F2E2B2D4F2F97
:103E7000682DF70182810E949F1D182FF701828310
:103E80002B2D492D682D83810E94AC1DF701838362
:103E9000F1E0BF1609F47CC0BF1608F43FC022E071
:103EA000B21609F47BC093E0B91609F482C0082F5A
:103EB000212F38C0F9012491820F911D26CFFE01D8
:103EC000EF58FF4F00811181080F191F680160E052
:103ED000C6010E943D1E080F191F62E0C6010E9424
:103EE0003D1EF4E0CF0ED11C8E159F0580F3F80126
:103EF000849190E0982F88273196E4918E2B00973B
:103F000009F40ACFE816F90619F4C80103964DCF53
:103F1000F8013296E4910E0F111DE9CF202F210FE9
:103F2000082F0A0D482F612FCE010E94371C8823CD
:103F300009F4F3CEF701148215828E01025A1F4F45
:103F40004E01FFE58F0E911CF8016081C7010E94B0
:103F5000121E682EF4016081C7010E94121EB82E45
:103F600040E0662DCE010E94B91D41E06B2DCE01CF
:103F70000E94B91D61E0C7010E94121E8111F0CF9D
:103F8000F70185818A1504F38285F6018083C5CE09
:103F9000BA1821E0210F080F1B0DC4CF91E0392F73
:103FA000301B21E0210F9A1901E0080F890F130F30
:103FB000B9CF212F2A0D982F901B01E0080F81E027
:103FC000890FB0CFAF92BF92CF92DF92FF920F9343
:103FD0001F93CF93DF938C01DC0158961C9283EAE8
:103FE000C82E81E0D82EF12CDAE0CEE15801BBE5F5
:103FF000AB0EB11CF60161916F01D8011296ED91E3
:10400000FC91C80109958F3F9807E9F08E3FEFEFCB
:104010009E0781F39C014D2F6C2FC8010E94491E01
:10402000D5019C91913049F030F0923041F09330BD
:1040300041F0F80EDFCFC80FFCCFD80FFACFC81B66
:10404000F8CFD81BF6CF8F2DDF91CF911F910F9115
:10405000FF90DF90CF90BF90AF900895CF93DF9304
:10406000EC016BAFEEA9FFA90190F081E02D09955D
:10407000EEA9FFA90280F381E02DCE01DF91CF915F
:104080000994AF92BF92CF92DF92EF92FF920F937B
:104090001F93CF93DF9300D000D01F92CDB7DEB730
:1040A0008C01DC01DA96AC90DA97DB96EC90DB972A
:1040B000ED91FC91B188FE2CD12CC12CD801ED9151
:1040C000FC9111978089D8962D913C911C82FD829C
:1040D0008B83B8E08B9FC00111248C9DA0018D9D26
:1040E000500D9C9D500D1124240F351F3A832983B8
:1040F000D8011496ED91FC919E012F5F3F4F41E056
:104100006FE0C8010995F3948F2D8E198A1528F454
:10411000BFEFCB1ADB0AFB1488F20F900F900F90C1
:104120000F900F90DF91CF911F910F91FF90EF9023
:10413000DF90CF90BF90AF9008950F931F93CF93D0
:10414000DF93EC01862F642F8C3208F03AC08A325C
:1041500008F060C0883209F44BC0893209F460C0AD
:10416000803408F475C0982F9F73FE01E90FF11D8C
:10417000868D8F3F09F44EC0903108F436C0282F49
:1041800030E0F901E153FE4F8491F901E554FE4F0F
:104190000491F901E955FE4F1491112379F0811131
:1041A0000E949918E12FF0E0EE0FFF1FE757FE4F36
:1041B000A591B491EC910E2381E009F480E0898F00
:1041C00029C08D3299F108F4CBCF94EB980F92303F
:1041D00008F0C6CF8F73C80FD11D8E8D411134C02A
:1041E00061E00E94F01860E08E8D0E94C21812C03B
:1041F0008E01025E1F4FD0E0F80181918F018F3F49
:1042000031F061E0D03108F062E00E94F018DF5F29
:10421000D63191F781E0DF91CF911F910F910895F1
:1042200070E090E080E00E944619F4CF85E090E0D5
:10423000433010F082E090E0880F991F880F991F9B
:1042400005970197F1F7E6CF62E00E94F018E2CF00
:1042500080E0E1CFCF92DF92EF92FF920F931F9316
:10426000CF93DF936C01EB017B01E40EF51E10E0B0
:1042700000E0CE15DF0561F06991D601ED91FC916A
:104280000190F081E02DC6010995080F191FF1CFAB
:10429000C801DF91CF911F910F91FF90EF90DF90B8
:1042A000CF900895CF92DF92EF92FF920F931F93DA
:1042B000CF93DF93EC016C0124E0C20ED11CFC0112
:1042C000E158FF4F0190F081E02DC60109958E3F26
:1042D000EFEF9E07C8F48E010E571F4F7E01F1E8E5
:1042E000EF0EF11C9C01F8014081F7016081C601CD
:1042F0000E94491EC15ADF4F98819130A9F078F091
:104300009230A1F09330B9F081E090E0DF91CF914D
:104310001F910F91FF90EF90DF90CF900895F701DC
:104320009081890F8083F0CFF801FACFF701908157
:10433000981B892FF7CFF801FACF089590E080E01D
:1043400008950F931F93CF93DF93EC018A018E8919
:104350009F89288D31E030937D0220939F02109237
:104360007E021092A0020E94791980E00E9400173C
:1043700062E0888D0E94BE1610927C0280937B02C0
:104380008E899F89DC01ED91FC910084F185E02DFF
:1043900009950297B1F48E899F89DC01ED91FC911A
:1043A0000284F385E02D0995F80180838E899F8929
:1043B000DC01ED91FC910284F385E02D0995F80173
:1043C0008183DF91CF911F910F910895CF93DF9358
:1043D000EC018E899F89288D31E030937D022093F6
:1043E0009F0210927E021092A0020E94791980E032
:1043F0000E94001761E0888D0E94BE1610927C0218
:1044000080937B028E899F89DC01ED91FC91008471
:10441000F185E02D0995892B61F08E899F89DC015A
:10442000ED91FC910284F385E02D0995DF91CF9108
:10443000089580E0FBCF6BE070E00E94E621982FAA
:10444000937081E009F480E00895CF93DF93EC014D
:104450006AE270E00E94E621482F41606AE270E063
:10446000CE01DF91CF910C948019CF93DF93EC01B3
:104470006AE270E00E94E621482F4E7F6AE270E017
:10448000CE01DF91CF910C948019FC0101900020A6
:10449000E9F73197AF01481B590BBC0188EE96E054
:1044A0000C9471178F929F92AF92BF920F931F93AC
:1044B000CF93DF93CDB7DEB7A1970FB6F894DEBFE9
:1044C0000FBECDBF19A2423008F44AE08E010F5D45
:1044D0001F4F842E912CB12CA12CA50194010E9478
:1044E000602BE62FB901CA01EA30F4F4E05DD8018F
:1044F000EE938D01232B242B252B79F790E080E080
:10450000109719F0CD010E944522A1960FB6F8949C
:10451000DEBF0FBECDBFDF91CF911F910F91BF9036
:10452000AF909F908F900895E95CE1CFFC01A0814E
:10453000B18150962C9182AD38E0839FC001112447
:10454000289FA001299F500D112470E060E080ADEC
:1045500091AD0C94C42D1F93CF93DF93EC010E9477
:1045600041201BAD8AAD180FE881F98181891817A8
:1045700068F0EC81FD8130E020E040E060E1CE01B8
:10458000099580E0DF91CF911F910895FE01E658D3
:10459000FF4F8081882319F0CE010E949622612F5F
:1045A000CE010E942E2081E0EDCFCF93DF93EC016E
:1045B000FC01E658FF4F8081882319F0CE010E944C
:1045C000962260E0CE01DF91CF910C942E20CF9304
:1045D000DF93EC010E94D522CE010E94AB22811113
:1045E000FBCF60E0CE01DF91CF910C942E200F9392
:1045F0001F93CF93DF93EC01683109F46EC058F438
:104600006431F9F0F901673181F080E0DF91CF91F9
:104610001F910F910895693109F49CC06032A9F788
:104620006AE4CE010E945A1A56C0442309F453C0CA
:1046300081918EBD00000DB407FEFDCF8EB54150B7
:10464000F4CFE881F9818C859D85AE85BF85892B66
:104650008A2B8B2B41F480859185A285B3858C872D
:104660009D87AE87BF87418169E4CE010E945A1AB7
:10467000CFB7F89480910402811127C0E1EBF1E0FB
:104680008491E5ECF1E09491E82FF0E0EE0FFF1F4C
:10469000ED56FE4FA591B491EC91E92321F461E030
:1046A0008AE00E94C21861E08AE00E94F0188CB58E
:1046B00080618CBD8CB580648CBD61E08DE00E9412
:1046C000F01861E08BE00E94F018809104028F5F87
:1046D00080930402CFBF81E099CFE881F981E4851E
:1046E000E15090E0E33020F4F0E0EB5FFE4F90818A
:1046F0000C851D852E853F8540E052E16AE770E01C
:1047000080E0041715072607370740F4769567956C
:10471000579547958F5F8630A1F787E09C7090652D
:10472000282F2695922B809581709CBD8DBDE881A8
:10473000F981408169E4CE010E945A1AA881B981A9
:10474000EA85FB8530E020E012964C916CE2CE01C8
:104750000995C1CFA881B981EA85FB8530E020E0C9
:1047600013964C916CE20995E881F981418169E4E5
:1047700058CF1F920F920FB60F9211242F933F9391
:104780004F935F936F937F938F939F93AF93BF9359
:10479000EF93FF9388EE96E00E94EF17FF91EF9161
:1047A000BF91AF919F918F917F916F915F914F9149
:1047B0003F912F910F900FBE0F901F9018951F9251
:1047C0000F920FB60F9211242F938F939F93EF9315
:1047D000FF93E091F806F091F9068081E091FE06E2
:1047E000F091FF0682FD1BC09081809101078F5FD1
:1047F0008F7320910207821741F0E0910107F0E0EA
:10480000E851F94F958F80930107FF91EF919F91A8
:104810008F912F910F900FBE0F901F901895808150
:10482000F4CF1F920F920FB60F9211242F933F9344
:104830008F939F93AF93BF938091490290914A02C7
:10484000A0914B02B0914C023091480223E0230F1B
:104850002D3758F50196A11DB11D20934802809374
:10486000490290934A02A0934B02B0934C0280916C
:104870004D0290914E02A0914F02B09150020196CC
:10488000A11DB11D80934D0290934E02A0934F0243
:10489000B0935002BF91AF919F918F913F912F9113
:1048A0000F900FBE0F901F90189526E8230F0296C9
:1048B000A11DB11DD2CF1F920F920FB60F921124DE
:1048C0002F933F934F935F936F937F938F939F9318
:1048D000AF93BF93EF93FF938091B900887F8036A9
:1048E00009F44AC0F0F5883209F4A7C018F5803100
:1048F00009F49BC0B8F4882309F4F9C0883009F49E
:1049000094C0FF91EF91BF91AF919F918F917F9153
:104910006F915F914F913F912F910F900FBE0F902C
:104920001F901895883109F488C0803251F7809320
:10493000E50214C0803409F49DC040F48033B9F31B
:104940008833F9F68093E50285ECB0C0803509F430
:1049500085C0883509F496C0883499F60E94A31959
:10496000D0CF883909F48CC038F5883729F050F455
:10497000883611F0803729F683E08093E7021092A1
:10498000470257C0883809F47BC0803919F0803855
:1049900009F0B7CF80914702803208F071C0E091F2
:1049A000470281E08E0F809347028091BB00F0E0C8
:1049B000E95DFD4F80833DC0803B39F0E0F4803AF3
:1049C00009F479C0883A09F09CCF84E08093E7022B
:1049D0001092260210922502E0915302F0915402A7
:1049E00009958091250281110FC081E080932502F5
:1049F0001092050209C0803C09F4A6CF883C09F456
:104A0000A3CF883B09F07DCFE091260281E08E0F95
:104A100080932602F0E0EB5FFD4F80818093BB0026
:104A2000909126028091250229C08091E202809314
:104A3000BB0085EC8093BC0064CF9091E402809130
:104A4000E302981758F5E091E40281E08E0F80931D
:104A5000E402F0E0EF53FD4F8081E9CFE091E40202
:104A600081E08E0F8093E4028091BB00F0E0EF5371
:104A7000FD4F80839091E4028091E3029817C8F281
:104A800085E8D8CFE091E40281E08E0F8093E402C4
:104A90008091BB00F0E0EF53FD4F80838091E602F0
:104AA00081115CCF81E08093E10284EA8093BC00B5
:104AB0001092E70226CF85EC8093BC001092E702AB
:104AC00080914702803230F4E0914702F0E0E95DE6
:104AD000FD4F10826091470270E0E0915102F09129
:104AE000520287E292E00995109247020ACF109293
:104AF000E50234CFE8EEF6E01382128288EE93E00E
:104B0000A0E0B0E084839583A683B78323E831E0F7
:104B10003183208325EC30E03587248724EC30E096
:104B20003787268720EC30E0318B208B21EC30E07A
:104B3000338B228B22EC30E0358B248B26EC30E05B
:104B4000378B268B118E128E138E148EE5E8F7E0CC
:104B50001382128284839583A683B78385E991E0CB
:104B6000918380830895CF93DF93CDB7DEB7C75984
:104B7000D1090FB6F894DEBF0FBECDBF789484B5CF
:104B8000826084BD84B5816084BD85B5826085BD49
:104B900085B5816085BD80916E00816080936E00D7
:104BA00010928100809181008260809381008091C9
:104BB000810081608093810080918000816080937A
:104BC00080008091B10084608093B1008091B0003A
:104BD00081608093B00080917A00846080937A0035
:104BE00080917A00826080937A0080917A0081605F
:104BF00080937A0080917A00806880937A00109286
:104C0000C100E091F806F091F90682E08083E0911E
:104C1000F406F091F5061082E091F606F091F706A1
:104C20008FEC808310920007E091FC06F091FD0666
:104C300086E08083E091FA06F091FB068081806136
:104C40008083E091FA06F091FB0680818860808382
:104C5000E091FA06F091FB06808180688083E09104
:104C6000FA06F091FB0680818F7D808310927C0292
:104C700010927B0210927E021092A0021092E70224
:104C800081E08093E6021092E10261E082E10E94FD
:104C9000C21861E083E10E94C2188091B9008E7F42
:104CA0008093B9008091B9008D7F8093B90088E42A
:104CB0008093B80085E48093BC008FE697E19093E1
:104CC00054028093530280E797E1909352028093BD
:104CD000510280E480937C0080917A00806480930C
:104CE0007A0080917A0086FDFCCF809178006091F7
:104CF0007900762F682F072E000C880B990B611511
:104D000071058105910511F00E941E2B0091790219
:104D100010917A0280910001882309F472C0023058
:104D2000110509F471C01C821B8285E697E1C05809
:104D3000DF4F99838883C058D040CE57DF4F188209
:104D4000C258D040CD57DF4F1882C358D0401D8E77
:104D500081E791E09A838983CE0105960E944E16E1
:104D600089E08CA78AE08DA78CE08EA7CE010596FE
:104D70000E94611ACE0105960E94E722E985FA8514
:104D800030E020E040E06BE0CE0105960995CE01D1
:104D900005960E94D52263EE75E00115110529F0F4
:104DA0000130110531F463EE71E0CE0105960E94E9
:104DB000321DCE0105960E94AB228111ECCF1092DC
:104DC00000018DE1898F85E897E0988F8F8B6DE0EA
:104DD00070E0CE0101960E94E6218A3209F4CEC12C
:104DE00089E09AE00E945E1881EB91E00E944522E2
:104DF0008DEF99E00E945E1881EB91E00E944522C0
:104E0000FFCF02301105E9F61C821B8285E697E18F
:104E1000C058DF4F99838883C058D040CE57DF4FAA
:104E20001882C258D040CD57DF4F1882C358D040A7
:104E30001D8E81E791E09A838983CE0105960E94B9
:104E40004E1689E08CA78AE08DA78CE08EA7CE0154
:104E500005960E94611ACE0105960E94E722E98517
:104E6000FA8530E020E040E06BE0CE010596099540
:104E700062968EAD9FAD62978E539A4009F4AFC093
:104E8000EEE3FAE06296FFAFEEAF6297E491A2968E
:104E9000EFAFA297EFE3FAE0E491A396EFAFA39709
:104EA000E0E4FAE0E491A496EFAFA497E1E4FAE03D
:104EB000E491A596EFAFA597E2E4FAE0E491A69617
:104EC000EFAFA697E3E4FAE0E491A796EFAFA797D8
:104ED000E4E4FAE0E491A896EFAFA897E5E4FAE0FD
:104EE000E491A996EFAFA997E6E4FAE0E491AA96D7
:104EF000EFAFAA97E7E4FAE0E491AB96EFAFAB9798
:104F0000E8E4FAE0E491AC96EFAFAC97E9E4FAE0BC
:104F1000E491AD96EFAFAD97EAE4FAE0E491AE9696
:104F2000EFAFAE97EBE4FAE0E491AF96EFAFAF9757
:104F3000ECE4FAE0E491E096EFAFE097EDE4FAE01C
:104F4000E491E196EFAFE197EEE4FAE0E491E296C6
:104F5000EFAFE29761E18EE39AE00E943D1EE49696
:104F60009FAF8EAFE49763E18EE39AE00E943D1E0F
:104F7000E6969FAF8EAFE69765E18EE39AE00E94DA
:104F80003D1EE8969FAF8EAFE89762968EAD9FADBF
:104F90006297892B21F1AF968FADAF97EB968FAFCC
:104FA000EB97E0964FADE097EC964FAFEC97EA9613
:104FB0009FADEA97992399F0913009F075C0E19679
:104FC0009FADE19789171CF4EB969FAFEB97E296A4
:104FD0008FADE29784171CF4EC968FAFEC97A196F7
:104FE0001FAEA1970E94CF2A2DE030E040E050E0B4
:104FF0000E942E2BF12CE12CC62ED12CBDE0AB2E25
:10500000B12C15E6812E17E1912E16E07E2CC601FB
:105010008E0D9F1DB5010E94962DFC01EE0FFF1F06
:10502000ED51F64F65917491CE018C579F4F0E94C0
:10503000272BCE0105960E94D52298868F82CE011D
:1050400005960E94E21F00E020E841E160E0CE0109
:1050500005960E94C81C20E844E160E0CE01059658
:105060000E94C81C612CE1E25E2EE4E8F0E0EC0F47
:10507000FD1FE60DF11D60816623A9F16A3019F468
:105080007DE2572E05E0CE57DF4F0883C258D0404F
:10509000CD57DF4F5882C358D040CE0101960E94B1
:1050A00052210A5F6394E1CFAC963FADAC97AE96C8
:1050B0002FADAE97082E000C990B622F022E000C1C
:1050C000770B630F711D37FD7A958617970724F4C8
:1050D000320FEB963FAFEB9724170CF080CFEC9696
:1050E0002FAFEC977CCF00E020E842E360E0CE01F8
:1050F00005960E94C81C20E844E360E0CE010596B6
:105100000E94C81CCE0105960E94AB22811195CF4A
:10511000872D612F0E948A2D682F70E090E080E03B
:105120000E94362C9B01AC010E94C22C20E030E092
:1051300048EC52E40E94C22C0E94052C0E944619A1
:105140003FEFE31AF30A84E1E816F10409F05ECFB9
:1051500060E177E280E090E00E944619F0E0E0E054
:10516000099580E090E0892B09F4D0CD0E94DB17EF
:10517000882309F4CBCD0E940000C8CD82E090E0E6
:105180009A8389831C821B82CE0101960E941B2276
:10519000882321F0CE0101960E9435226EE070E056
:1051A000CE0101960E94E621482F4C7F6EE070E010
:1051B000CE0101960E948019CE0101960E942522FF
:1051C0000B811C81CE0101960E941B22882321F0B5
:1051D000CE0101960E9435226AE270E0CE0101966E
:1051E0000E94E621A80163E0440F551F6A95E1F78C
:1051F000877C482B6AE270E0CE0101960E948019FC
:10520000CE0101960E942522CE0101960E941B220A
:10521000882321F0CE0101960E94352261E170E0E1
:10522000CE0101960E94E621482F406461E170E0C2
:10523000CE0101960E94801940E562E170E0CE0146
:1052400001960E948019CE0101960E942522CE016E
:1052500001960E941B22882321F0CE0101960E9414
:10526000352248E065E270E0CE0101960E94801987
:1052700040E761E270E0CE0101960E94801940E3B0
:1052800066E270E0CE0101960E94801940EA67E272
:1052900070E0CE0101960E9480194FEF68E270E045
:1052A000CE0101960E948019CE0101960E9425220E
:1052B00070E060E0CE0101960E94E62183FFF8CF06
:1052C000AE014C575F4F61E070E0CE0101960E9445
:1052D000A121CC57DF4F68817981C458D04076270F
:1052E0006727762794E0759567959A95E1F7072EDD
:1052F000000C880B990B0E94362C9B01AC010E947C
:10530000C22C6B017C01AE014C575F4F63E070E033
:10531000CE0101960E94A121CC57DF4F688179818F
:10532000C458D04076276727762724E0759567957F
:105330002A95E1F7072E000C880B990B0E94362C5A
:105340009B01AC010E94C22CA70196010E94922BE6
:105350006B017C01AE014C575F4F65E070E0CE0100
:1053600001960E94A121CC57DF4F68817981C458F2
:10537000D04076276727762734E0759567953A956C
:10538000E1F7072E000C880B990B0E94362C9B012D
:10539000AC010E94C22CA70196010E94922B0E9490
:1053A000352D10917502E12EF12CEE0CFF1C9701AA
:1053B0002B5A3D4F79010E94FE2BF70171836083C8
:1053C0001F5F1F7010937502E5E5F2E085E792E03C
:1053D00010E000E021913191020F131F8E179F07FB
:1053E000C9F717FF02C0015F1F4F84E015950795AD
:1053F0008A95E1F70937F5E01F070CF466C0809144
:105400007802811110C08091770291E09093780228
:105410008F5F8093770284EB91E00E94452281EBBD
:1054200091E00E944522809177028B3008F45AC0A7
:105430008091790290917A02029709F456C082E035
:1054400090E090937A028093790281E0809300014A
:105450008091760290E0801791070CF4C801809348
:1054600076020C591F4F8017110609F00CF479CE03
:10547000882309F476CE8DEB91E00E94452260915D
:10548000760270E090E080E04AE00E94522289ECCF
:1054900091E00E9445224AE068E775E080E090E0F4
:1054A0000E94522283ED91E00E9445226091770292
:1054B00070E090E080E04AE00E94522281EB91E0AF
:1054C0000E944522109276024CCE083725E0120742
:1054D00009F4A9CF80917802882309F4A4CF10920F
:1054E0007802A1CF863008F4B3CF809179029091F1
:1054F0007A02019709F4ACCF81E090E090937A02B0
:1055000080937902A3CF8F929F92AF92BF92CF9256
:10551000DF92EF92FF92CF93DF93EC016881798164
:105520008A819B81611571058105910521F464E2F1
:1055300079ED8BE597E02DE133EF41E050E00E94FB
:105540002E2B49015A019B01AC01A7EAB1E40E944C
:105550004D2B6B017C01ACEEB4EFA50194010E94D0
:105560005B2BC60ED71EE81EF91EF7FE06C081E0B3
:10557000C81AD108E10880E8F80AC882D982EA820C
:10558000FB82C701B6019F77DF91CF91FF90EF902B
:10559000DF90CF90BF90AF909F908F9008958F92A3
:1055A0009F92AF92BF92CF92DF92EF92FF92609163
:1055B0000101709102018091030190910401611534
:1055C00071058105910521F464E279ED8BE597E0A1
:1055D0002DE133EF41E050E00E942E2B49015A01AA
:1055E0009B01AC01A7EAB1E40E944D2B6B017C0149
:1055F000ACEEB4EFA50194010E945B2BC60ED71E42
:10560000E81EF91EF7FE06C081E0C81AD108E108BD
:1056100080E8F80AC0920101D0920201E0920301F1
:10562000F0920401C701B6019F77FF90EF90DF90E1
:10563000CF90BF90AF909F908F900895609301019D
:105640007093020180930301909304010895FB017C
:10565000DC0105900D920020E1F70895052E97FBDF
:105660001EF400940E94452B57FD07D00E94602B2A
:1056700007FC03D04EF40C94452B50954095309583
:1056800021953F4F4F4F5F4F0895909580957095AE
:1056900061957F4F8F4F9F4F08950E94822BA59F4A
:1056A000900DB49F900DA49F800D911D112408951D
:1056B000B7FF0C944D2B0E944D2B821B930B08952A
:1056C000A1E21A2EAA1BBB1BFD010DC0AA1FBB1F06
:1056D000EE1FFF1FA217B307E407F50720F0A21B78
:1056E000B30BE40BF50B661F771F881F991F1A94E5
:1056F00069F760957095809590959B01AC01BD010F
:10570000CF010895A29FB001B39FC001A39F700D68
:10571000811D1124911DB29F700D811D1124911DB9
:1057200008955058BB27AA270E94A92B0C94882CB7
:105730000E947A2C38F00E94812C20F039F49F3F8F
:1057400019F426F40C94772C0EF4E095E7FB0C94F6
:10575000712CE92F0E94992C58F3BA17620773072E
:105760008407950720F079F4A6F50C94BB2C0EF471
:10577000E0950B2EBA2FA02D0B01B90190010C0161
:10578000CA01A0011124FF27591B99F0593F50F479
:10579000503E68F11A16F040A22F232F342F4427D1
:1057A000585FF3CF469537952795A795F0405395C9
:1057B000C9F77EF41F16BA0B620B730B840BBAF099
:1057C0009150A1F0FF0FBB1F661F771F881FC2F704
:1057D0000EC0BA0F621F731F841F48F48795779518
:1057E0006795B795F7959E3F08F0B0CF9395880FD2
:1057F00008F09927EE0F9795879508950E94052C3C
:105800006894B1110C94BC2C08950E94A12C88F0CE
:105810009F5798F0B92F9927B751B0F0E1F0660F74
:10582000771F881F991F1AF0BA95C9F714C0B130B5
:1058300091F00E94BB2CB1E008950C94BB2C672F13
:10584000782F8827B85F39F0B93FCCF386957795E4
:105850006795B395D9F73EF49095809570956195CD
:105860007F4F8F4F9F4F0895E89409C097FB3EF4F8
:1058700090958095709561957F4F8F4F9F4F99239D
:10588000A9F0F92F96E9BB279395F695879577951B
:105890006795B795F111F8CFFAF4BB0F11F460FFDB
:1058A0001BC06F5F7F4F8F4F9F4F16C0882311F033
:1058B00096E911C0772321F09EE8872F762F05C047
:1058C000662371F096E8862F70E060E02AF09A95E2
:1058D000660F771F881FDAF7880F9695879597F9D7
:1058E000089597F99F6780E870E060E008959FEF62
:1058F00080EC089500240A94161617061806090667
:10590000089500240A941216130614060506089535
:10591000092E0394000C11F4882352F0BB0F40F4BD
:10592000BF2B11F460FF04C06F5F7F4F8F4F9F4FFD
:10593000089557FD9058440F551F59F05F3F71F07F
:105940004795880F97FB991F61F09F3F79F08795E6
:105950000895121613061406551FF2CF4695F1DF6F
:1059600008C0161617061806991FF1CF86957105FF
:10597000610508940895E894BB2766277727CB0133
:1059800097F908950E94D52C0C94882C0E947A2CAB
:1059900038F00E94812C20F0952311F00C94712C8A
:1059A0000C94772C11240C94BC2C0E94992C70F32D
:1059B000959FC1F3950F50E0551F629FF001729FB4
:1059C000BB27F00DB11D639FAA27F00DB11DAA1FC3
:1059D000649F6627B00DA11D661F829F2227B00D10
:1059E000A11D621F739FB00DA11D621F839FA00D9B
:1059F000611D221F749F3327A00D611D231F849FEB
:105A0000600D211D822F762F6A2F11249F57504041
:105A10009AF0F1F088234AF0EE0FFF1FBB1F661FBC
:105A2000771F881F91505040A9F79E3F510580F085
:105A30000C94712C0C94BC2C5F3FE4F3983ED4F38F
:105A4000869577956795B795F795E7959F5FC1F729
:105A5000FE2B880F911D9695879597F9089519F457
:105A600016F40C94772C0C94752D0E94A12CB8F38D
:105A70009923C9F3B6F39F57550B87FF0E94832DD7
:105A80000024A0E640EA900180585695979528F4A6
:105A9000805C660F771F881F20F02617370748079E
:105AA00030F4621B730B840B202931294A2BA695F5
:105AB00017940794202531254A2758F7660F771F3A
:105AC000881F20F026173707480730F4620B730B46
:105AD000840B200D311D411DA09581F7B901842F44
